:020000040800F2
:108000000000022019F00008758300082D83000885
:10801000898300088D830008918300080000000018
:108020000000000000000000000000009583000830
:1080300099830008000000009D83000865F0000897
:1080400065F0000865F0000865F0000865F00008BC
:1080500065F0000865F0000865F0000865F00008AC
:1080600065F0000865F0000865F0000865F000089C
:1080700065F0000865F00008C587000865F0000895
:1080800065F0000865F0000865F0000865F000087C
:1080900065F0000865F0000865F0000865F000086C
:1080A00065F0000865F0000865F0000865F000085C
:1080B00065F0000865F00008F996000865F0000812
:1080C00065F0000865F0000865F0000865F000083C
:1080D00065F0000865F0000865F0000865F000082C
:1080E00065F0000865F0000865F0000865F000081C
:1080F00065F0000865F0000865F0000865F000080C
:1081000065F0000865F0000865F0000865F00008FB
:1081100065F0000865F0000865F0000865F00008EB
:108120008594000865F0000865F0000865F0000817
:1081300065F0000865F0000865F0000865F00008CB
:1081400065F0000865F0000865F0000865F00008BB
:1081500065F0000865F0000865F0000865F00008AB
:1081600065F0000865F0000865F0000865F000089B
:1081700065F0000865F0000865F0000865F000088B
:1081800065F0000865F00008000000000000000035
:1081900040BF010800000020E0840020E0840020AF
:1081A00070C90020404A414BD2F88810404841F441
:1081B0007001C2F888101968002241F001011960AD
:1081C0009A60196821F0847121F480311960586037
:1081D000196882B021F480211960DA60009201925E
:1081E0001A6842F480321A601A4603E0009BB3F525
:1081F000A06F09D0136803F400330193009B01338F
:108200000093019B002BF1D0284B1B6813F4003323
:1082100018BF01230193019B012B14D0234A254B46
:10822000916821F400019160C2F88430136843F032
:108230008063136013681B01FCD51B4B4FF0006279
:108240009A6002B07047194B1B4A186C1B4940F0EA
:1082500080501864106840F4404010609A689A603A
:108260009A6842F400429A609A6842F4A0529A6076
:1082700059601A6842F080721A6019460B680B4AFE
:108280009801FBD50E4B40F205611960936823F00D
:1082900003039360936843F002039360936803F0D1
:1082A0000C03082BFAD1B9E700ED00E000380240DA
:1082B0001030002400560020007000400854400791
:1082C000003C0240154B9A6802F00C02042A23D0AD
:1082D000082A09D0124A1149124B8968C1F30311C7
:1082E000595CCA401A617047586859685B68420215
:1082F0004CBF0D4A0A4A01F03F01C3F38813B2FB99
:10830000F1F202FB03F2054B5B68C3F30143013357
:108310005B00B2FBF3F2DEE7034ADCE70038024021
:108320000024F4000000002000127A001EF0040F68
:108330000CBFEFF30880EFF3098000F01DB80000D8
:10834000704700BF88428CBFC1EB0000C0EB01004A
:10835000704700BF064B10B400209C1D13F8012F7E
:10836000411C02B1C8B2A342F8D15DF8044B70477A
:10837000FFC80020FEE700BF024B818A028B5983B1
:108380001A83FCE700180240FEE700BFFEE700BFCB
:10839000FEE700BFFEE700BFFEE700BFFEE700BF4D
:1083A0000120704770B5354C4FF4961306460D46C4
:1083B000236004E023685A1E2260002B5BD0304803
:1083C0004FF4003104F0B8FA0028F3D12C48012111
:1083D00004F082F94FF48053236004E023685A1EAE
:1083E0002260002B47D02648264904F091FA002845
:1083F000F4D023483421002204F08AF94FF480534A
:10840000236004E023685A1E2260002B33D01C48EE
:108410001D4904F07DFA0028F4D0C5F3002141EA9B
:108420004601C9B2164804F00BFA4FF4805323609A
:1084300003E023685A1E2260EBB11148134904F08F
:1084400067FA0028F5D0E9B20D4804F0F9F94FF4C5
:108450009613236003E023685A1E22605BB108482C
:108460000B4904F069FA0028F5D00548012104F011
:1084700041F9002070BD012070BD00BF1400002034
:108480000058004001000300820007008000070040
:108490000400001038B50F200021FFF783FF054DC1
:1084A0000024E0B235F8021F0134FFF77BFF0A2CED
:1084B000F7D138BDAEF70008F0B5164C85B00121F4
:1084C0004FF4800004F03CFC04AD204604F03EF87C
:1084D0004CF250334FF0000E4FF48062204645F8C6
:1084E000103D4BF6FF774FF4804333260121ADF862
:1084F00004E0ADF80A20ADF80C30ADF80670ADF828
:10850000086004F0DBF82046694604F055F805B031
:10851000F0BD00BF0058004030B5124C85B0054694
:1085200001214FF4804004F00BFC204604F0D6FCFF
:1085300000224FF40073204669460324ADF8022060
:10854000ADF80C20ADF80030ADF806300295ADF86E
:10855000044004F023FD6946034804F009FE05B019
:1085600030BD00BF0038004000340040F0B5294C59
:10857000294E83B00620012104F0BEFB0025012313
:108580000227204669464FF440628DF8063000927B
:108590008DF804708DF805508DF8075003F022FF18
:1085A00020460A21042203F0BDFF042220460B21AD
:1085B00003F0B8FF204669464FF4704300938DF8EE
:1085C00004708DF805508DF806508DF8075003F0B3
:1085D00009FF402369463046009303F003FF20461D
:1085E0000C21052203F09EFF20460D21052203F0F9
:1085F00099FF20460F21052203F094FF20460E210B
:10860000052203F08FFF30460621052203F08AFF82
:1086100003B0F0BD000402400008024010B504465B
:10862000FFF7A4FFFFF748FF2046FFF775FFBDE8FF
:108630001040FFF72FBF00BF2DE9F84F364C374DE4
:108640004FF40010012104F057FB2046002104F0F4
:10865000FDFE204604F018FE314B324A5A6019469E
:108660002046402200244FF6FE7B4FF4806A4FF4F0
:1086700000694FF400584FF480774FF40036DA6009
:108680001C609C605C61DC621C635C639C63C3F87F
:1086900010B0C3F818A0C3F81C90C3F820805F6224
:1086A0009E6204F089FE01221F48022104F0A8FD09
:1086B0002146284604F0CAFE284604F0E5FD1B4B7F
:1086C0001B4AC3F810B04FF0C06E194628469C6094
:1086D000DC605C61C3F818A0C3F81C90C3F820806C
:1086E0005F629E62DC621C635C639C63C3F800E0B3
:1086F0005A6004F061FE28469E21012204F02AFF00
:108700000C4B0D484FF4804201211A600A46BDE827
:10871000F84F04F075BD00BF706002405860024021
:10872000548800200C38004000380040DC870020CE
:108730000C34004000E100E000340040F8B5174B75
:10874000174F184E184A194D19489A601946802437
:108750003A601C61356004F02FFE164B16489D6090
:1087600019461C6104F028FE1148012104F06EFE38
:108770001148012104F06AFE1048838B5A0509D57F
:108780000F48838B5B0500D5F8BD0121BDE8F8409B
:1087900004F098BC012104F095FCF1E75488002016
:1087A00090880020D8850020DC860020DC85002011
:1087B00070600240DC8700205860024000380040B2
:1087C0000034004008B54FF082511B4804F08AFE87
:1087D0004FF09051184804F085FE4FF0885116482C
:1087E00004F080FE14484FF0C05104F07BFEA0B9A5
:1087F00011484FF0A05104F075FE00B908BD0F4BB1
:108800000F4A19681068012201F09CF80A484FF0DD
:10881000A051BDE8084004F083BE084B084A19681F
:10882000106880318030002201F08CF802484FF04F
:10883000C05104F075FEDBE75860024090880020CC
:10884000D885002070B4344B1B7813B9334B1B7898
:1088500043B3334B334A1B7803EBC30302EBC3012F
:1088600008310246002351ED026A11ED017A0C46EF
:10887000D4ED007AFCEEE66ABCEEC77A16EE906A9A
:10888000FCEEE77AC65217EE105A17EE904A0633FE
:10889000242B5580948001F10C0102F10602E2D1F3
:1088A00070BC70471E4A1F4B11781F4ADFED1F5ADC
:1088B00001EBC10103EBC103083302F1180652F8C2
:1088C000041F53ED026A13ED017A07EE901AF8EED9
:1088D000677A1C4694ED006A67EEA57AB24267EEAD
:1088E000A66A27EE877A67EE867AFCEEE66ABCEE29
:1088F000C77AFCEEE77A16EE905A17EE104A17EE9A
:10890000901A05804480818003F10C0300F1060079
:10891000D5D170BC704700BFE0840020E184002006
:10892000EC8400201800002050C80020000080398E
:108930002DE9F04FB7B018AB36A900221A805A8043
:108940009A8006338B42F9D1C74BDFF83CC31A78C3
:10895000002A00F0828101218CF8011093F800E0D8
:108960009CF80180C149C24F9FEDC26ADFEDC26A27
:10897000C24E0023B7EE005AF2B1F7EE007AF85C6F
:108980009A000DF1D809B51809EB83044A44E8B9F7
:1089900095ED007A75EE475A013327EE277A65EE9A
:1089A000A77A062B02ED2D7A42ED337A01F104010C
:1089B0001BD07246002AE0D1D1ED007AF4EE467A5F
:1089C000F1EE10FA48BFF0EE467AD8E7B8F1000FA2
:1089D00003F1010308BFF0EE667A062B44ED337A0B
:1089E00044ED2D6A01F10401E3D19CF80080A44D0F
:1089F000A44CDFF8989208EBC8084FEAC8080DF1BC
:108A0000620718A900200023E25CEE5C824206D0D7
:108A10000133062B79D0E25CEE5C8242F8D19A00F9
:108A20000DF1D80E96445EED337AF5EEC07AF1EE94
:108A300010FA2CDD37F802ECB1F802C0B1F804A04E
:108A4000F4441CEB0A0F73D103EB430E08EB8E0EBC
:108A5000CE44DEED006A9EED017A9EED026A67EE7D
:108A6000A66A27EE877A67EE867AFCEEE66ABCEEA7
:108A7000C77AFCEEE77A16EE90AA17EE10CA17EE48
:108A800090EA27F802ACA1F802C0A1F804E00DF1C9
:108A9000D80C624452ED2D7AF5EEC07AF1EE10FA60
:108AA00033DDF6B24FEA460E0EEB06020CEB420245
:108AB00003EB430332F878CC32F876AC32F874BC6E
:108AC000E24408EB83031AEB0B0F4B4476D1D3ED52
:108AD000006A93ED017A93ED026A67EEA66A27EECB
:108AE000877A67EE867AFCEEE66ABCEEC77AFCEE21
:108AF000E77A16EE90EA17EE106A17EE903A22F82F
:108B000078EC22F8766C22F8743C0130C0B214285C
:108B100001F1060107F106077FF475AF0FA8FFF713
:108B200091FE18A80FA901F079FC37B0BDE8F08FCD
:108B300003EB430C08EB8C0CCC449CED006A9CEDE1
:108B4000017ADCED026A27EE866A27EE877ABCEEB0
:108B5000C66A67EEA67A16EE10CABCEEC77AE6447D
:108B6000FCEEE77A27F802ECB1F802B0B1F804A005
:108B700017EE10CA17EE90EADC44D644A1F802C002
:108B8000A1F804E037F802ECBEF5806F24BF40F294
:108B9000FF3E27F802ECB1F802E0BEF5806FB1F8B5
:108BA00004E024BF40F2FF3CA1F802C0BEF5806F94
:108BB00024BF40F2FF3EA1F804E068E793ED006AAD
:108BC00093ED017AD3ED026A32F876AC32F874BCD8
:108BD00027EE866A27EE877ABCEEC66A67EEA67A2B
:108BE00016EE103ABCEEC77A9C4422F878CC1FFAF5
:108BF0008CF3FCEEE77A17EE10CAE24417EE90CA47
:108C0000B3F5806F28BF40F2FF33DC4428BF22F861
:108C1000783C22F874CC0EEB06030DF1D80C0CEB6B
:108C2000430322F876AC33F8762CCDED017AB2F519
:108C3000806F24BF40F2FF3223F8762C764436ABA7
:108C400003EB460636F8743CB3F5806FFFF45DAF76
:108C500040F2FF3C26F874CC57E79CF80110C1F1B4
:108C600001018CF8011079E6E18400204C85002098
:108C7000C8C80020CDCC4C3D00000000308500204D
:108C8000A8C80020C0850020EC8400201800002027
:108C90002DE9F04F7F4EB378032BBFB09ABF5C1C19
:108CA000E4B200240DF13C0EB47073460DF10B01DB
:108CB0000DF116050020632201F8010FA9421A7078
:108CC0005A709A70DA701A715A7103F10603F3D16F
:108CD000714D0023EA563EA911443EAF11F8EC0C49
:108CE00002EB420207EB42020244013002F8BC3CB4
:108CF0000133062B01F8EC0CECD196F800A096F8A5
:108D00000280DFF8A8C1654D0AEBCA0A00214FEACC
:108D1000CA0A0B46CDF804A02AE05A5DDDF804A08B
:108D2000DFF88CB11644013316F8BC2C02EB42027A
:108D30000AEB82025A44D2ED006A92ED017AD2ED3A
:108D4000027AFCEEE66ABCEEC77AFCEEE77A16EE33
:108D5000906A17EE104A17EE902A0B2B20F8786CC9
:108D600020F8764C20F8742C01F106013AD04446E4
:108D700003F10F008CFB00B7C217C2EBE70202EB56
:108D80008202A0EB82020DF1F80A03EB430602EB2C
:108D900042000AEB46060AEB40005CB95F5D03F156
:108DA0000C0BEA4601371BF80A90FFB2B9455F5534
:108DB00098BF5C551EF80140632CAED102EB420215
:108DC0003EA800EB420201334FF00F044FF00507BD
:108DD0000B2B22F8784C22F8764C22F8747C01F1A7
:108DE0000601C4D12E4B2F4F19782F4EDFF8C4E067
:108DF00001EB410107EB810120AB00221CE0D1ED2A
:108E0000006A91ED017AD1ED027AFCEEE66ABCEEE1
:108E1000C77AFCEEE77A16EE905A17EE104A17EE74
:108E2000900A0132062AA3F84E50A3F85040A3F846
:108E30005200A3F106030FD0B05C0128DFD112F875
:108E40000E0000EB400007EB8000D0ED006A90EDD3
:108E5000017AD0ED027AD8E7002306A8ADF8A43055
:108E6000ADF8A630ADF8A830ADF8AA30ADF8AC300A
:108E7000ADF8AE30ADF8D430ADF8D630ADF8D8306E
:108E8000FFF7E0FC20A806A901F0C8FA3FB0BDE852
:108E9000F08F00BFEC840020B8C80020F0840020D0
:108EA000E2840020C4F70008C8C800206766666630
:108EB00018000020C885002010B51349A8B001F1A2
:108EC00050040AABF1EC017AFCEEE77A40F2FF3293
:108ED00017EE900AC00BB0F5806F04D8B0F5967FFE
:108EE0002CBF82B20022A1421A805A809A8003F1DC
:108EF0000603E7D101A8FFF7A5FC0AA801A901F024
:108F00008DFA28B010BD00BFD8880020084B1A6920
:108F1000511CB2F5FA6F196101D81A7D3AB10022DD
:108F20001A611A7508B9FFF703BDFFF7B1BE7047A4
:108F3000EC840020F0B40023DFF840C00A4F0B4E51
:108F40000B4D0C4819460122C45CEC540CF803206C
:108F5000F954F154C2540133062B4FF00104F3D1FC
:108F6000054B1C70F0BC704700C90020F8C80020F9
:108F7000D0880020C8C80020E1840020808500201F
:108F800030B41848184D0278184C9FED197A02EB4E
:108F9000C202002105EBC20308330A46217053EDDB
:108FA000027AF4EE477AF1EE10FA02F10C020FD1D8
:108FB00053ED017AF4EE477AF1EE10FA08D1D3EDD1
:108FC000007AF4EE477AF1EE10FA04BF0131C9B22B
:108FD000482A03F10C03E2D1062904BF00230370E1
:108FE00030BC7047EC84002018000020E084002092
:108FF0000000C84230B419490023CA5C4ABB184A71
:10900000184955889488D0880978174AC5F38D0582
:1090100006EE105AC4F38D04C0F38D00F8EEC66A54
:1090200007EE904ADBB201EBC10106EE100A03EB3A
:109030004303C900B8EEE77A01EB8303F8EEC67A82
:109040001344C3ED006A83ED017AC3ED027A30BCAC
:1090500070470133062BD0D1F9E700BFC8C8002004
:1090600090850020EC8400201800002000B50B48FB
:1090700083B003F0F9F85630C0B2094B0F281870CE
:1090800004D900221A7003B05DF804FB05490648B4
:1090900001AA03F009F903B05DF804FB00000E0813
:1090A000EC84002004000E081800002070B50B4C62
:1090B0000B4DD4F88024284602EBC202D60003F000
:1090C000A7F8084B18782946AA3003F0BDF82046C7
:1090D00032460549BDE8704003F0C8B818000020CA
:1090E00000000E08EC84002004000E080748084920
:1090F00008B50023CA5CC2540133062BFAD1FFF72E
:10910000D5FF044B00221A7008BD00BFC8C800205C
:10911000D0880020E18400202DE9F047784CDFF86A
:10912000F881DFF8F8A19CB006460021204604F043
:10913000D3FA2046002104F08DFB4046002104F0C4
:1091400085F904F06BFA6F48012103F0D5FD4FF467
:109150008070012103F000FE00254FF4806C4FF475
:10916000006E4FF00F094FF480724FF40033404609
:109170000F960DA901264FF40057CDF84CC0CDF83D
:1091800050E016921793CDF838A015970D951095CD
:10919000129518951A951B95CDF84490199604F0E0
:1091A0000BF93146404604F051F94FF440324FF488
:1091B000A06303A804921CAF06930395059504F0E1
:1091C00071FA204607A907958DF820608DF8216077
:1091D00009950A950B958DF8309004F02DFAEF2340
:1091E00047F86C3D4FF0030A394647488DF80B505D
:1091F0008DF808A003F0F6F83F2339464348019361
:1092000003F0F0F839464248CDF804A003F0EAF83C
:10921000394640233F48019303F0E4F820462946AD
:109220003246062304F090FA2046314602220623F5
:1092300004F08AFA204652460221062304F084FAFA
:10924000204651460422062304F07EFA06212046D9
:109250000B46052204F078FA062220461346072121
:1092600004F072FA20460A210722062304F06CFA61
:1092700020460B210822062304F066FA20460C2122
:109280000922062304F060FA20460D210A22062353
:1092900004F05AFA20460E210B22062304F054FA59
:1092A000204649460C22062304F04EFA20460521AA
:1092B0000D22062304F048FA204608210E22062338
:1092C00004F042FA062320464A46092104F03CFAFB
:1092D0002A464046102104F03DF92046314604F06C
:1092E000C3FA2046314604F0B5FA2046314604F070
:1092F000F3F9204604F074FA1CB0BDE8F08700BF13
:109300000020014007004000000002400008024029
:109310000004024000140240106402404C2001404E
:109320002DE9F04F01219DB006464FF4800003F077
:10933000E3FCDFF84881DFF848914E4D4FF4806040
:10934000012103F009FD2020012103F0D5FC0024B8
:109350004FF4006C4FF4005E01274FF480724FF41D
:10936000003340460F960DA907264FF0806A4FF450
:10937000806BCDF850C0CDF854E016921793CDF81D
:109380003890CDF834A01094129418941A941B9429
:109390001196CDF84CB0199704F00EF839464046B6
:1093A00004F054F84FF440324FF4A06303A8049241
:1093B00006930394059404F075F9284607A90794C9
:1093C0008DF820708DF8217009940A940B948DF813
:1093D000306004F031F91CA94FF47E7341F86C3D04
:1093E0004FF0030924488DF80B408DF8089002F0E7
:1093F000F9FF28463A463346042104F0A5F92846E9
:1094000033460921022204F09FF928464A46334692
:109410000E2104F099F9284633460F21042204F066
:1094200093F90521284633460A4604F08DF90621B2
:10943000284633460A4604F087F933462846314623
:10944000324604F081F922464046102104F082F8A9
:109450002846394604F008FA2846394604F0FAF955
:109460002846394604F038F9284604F0B9F91DB009
:10947000BDE8F08F00220140001402402864024041
:109480004C22014008B50648064904F02BF800B903
:1094900008BD03480349BDE8084004F041B800BFD7
:1094A0001064024020000010024A034B32F82020D2
:1094B0001A83704724F8000800100240024A034B48
:1094C00032F820205A83704724F800080010024028
:1094D00005280AD0084A094B02EB80001A69836903
:1094E0001A4214BF002001207047054B186980F410
:1094F0000040C0F3C030704724F80008000C024060
:109500000018024070B5012184B0042003F018FC5B
:10951000012400251E23134E8DF8003068468DF877
:1095200001508DF802408DF8034004F063FA01A861
:1095300004F0E8FB4FF47A5301A930460293ADF8EA
:109540000450ADF80C50ADF8065004F08DFB3046D9
:109550002146224605F05EF83046214604F034FCF0
:1095600004B070BD000800402DE9F04F102085B018
:10957000012103F0C1FB5B4EDFF870A1DFF870B191
:10958000DFF87081584F0121042003F0B5FB02A8D9
:1095900002F088FF0024012502A9304670230293BF
:1095A0008DF80C508DF80D408DF80E408DF80F4061
:1095B00002F018FF6F23304602A902934FF0800992
:1095C00002F010FF304602A9CDF8089002F00AFF21
:1095D00002A95046CDF8089002F004FF2946402029
:1095E00003F08AFB4FF4FC4302A95846029302F0B1
:1095F000F9FE2946402003F07FFB6C23584602A960
:1096000002938DF80C508DF80D408DF80E408DF8BA
:109610000F4002F0E7FE29464A2003F06DFB294681
:10962000042003F069FB4FF4807302A940460293C3
:1096300001938DF80C408DF80D408DF80F5002F01D
:10964000D1FE02A938460822029202F0CBFE304633
:1096500002A94FF40072029202F0C4FE41F20F021E
:10966000404602A902924FF4004402F0BBFE584665
:1096700002A94FF48045029402F0B4FE404602A9CC
:10968000029502F0AFFE019B0293304602A902F060
:10969000A9FE0423384602A9029302F0A3FE404625
:1096A00002A9029402F09EFE0223504602A98DF800
:1096B0000F30029402F096FE504602A9029502F085
:1096C00091FE4023384602A9029302F08BFE3846F1
:1096D00002A9CDF8089002F085FEFFF713FF05B050
:1096E000BDE8F08F00100240000402400008024074
:1096F00000180240000C024008B501212D4804F07A
:10970000ABFF2D4A2D4B1269198812F4004F4EF20F
:10971000010218BF4FF4604242EA410292B202F0E5
:109720003F013C291A8041D0234A598810694EF2E2
:10973000010210F4804F18BF4FF4604242EA410228
:1097400092B202F03F013C295A802BD01C4A9988E2
:1097500010694EF2010210F0400F18BF4FF4604242
:1097600042EA410292B24FF6F8718A429A8015D0CD
:10977000134AD98810694EF2010210F0800F18BF09
:109780004FF4604242EA410292B24FF6F8718A42C7
:10979000DA8002D10B4B01221A7008BD0A4A01215E
:1097A0001170E5E7094A01211170CFE7084A01214C
:1097B0001170B9E70008004000080240048500204D
:1097C0000004024028890020298900202B890020DC
:1097D0002A890020F0B4A0B1B1F90070B1F90250AB
:1097E000B1F90460B1F90640043805EB074504EB14
:1097F000064480B242F8045B083143F8044B002869
:10980000EAD1F0BC704700BF70B480B10439043AAB
:1098100051F8045F52F8044F5D8004382D1426146B
:1098200080B21D80DC809E8008330028F0D170BC9F
:10983000704700BF012814D90238131DC0F34E0031
:10984000043103EB4000023211F9033C02F8023C00
:1098500031F8043C02F8013C0232824201F1040179
:10986000F2D1704758B1043131F8043C0238A3F505
:10987000004380B222F8023B04310028F4D1704743
:1098800010B460B104310024023832F8023B21F8F0
:10989000043C00B221F8024C04310028F4D15DF8F8
:1098A000044B7047704700BF10B468B1043131F801
:1098B000044C22F8024B023831F8024C23F8024BD8
:1098C00000B204310028F2D15DF8044B704700BFAC
:1098D00010B468B1043132F8024B21F8044C02385C
:1098E00033F8024B21F8024C00B204310028F2D1C7
:1098F0005DF8044B704700BF30B4F7EE006A451EB8
:10990000ADB276EEC06AD0B101356D0000201C5EAC
:1099100007EE904A145EF8EEE77A07EE104A67EE1B
:10992000807AB8EEC77AE7EE267AFDEEE77A17EE90
:10993000904A04F30F040C520230A842E7D130BC25
:10994000704700BF2DE9F04FAB4CAC4AAC4BAD4F6C
:10995000DFF814A3DFF81493AB4EADF2145D0425C9
:109960000391014625834020FFF734FF02F0BAF946
:1099700001F0D0FEDFF8F8C2A44DDFEDA57A002497
:10998000BE460AF6D42B0CF6D4282146705CA14AB8
:109990000728535C84BF072070540A2B84BF0A2316
:1099A00053547B5C834216D001F80E002B460022F4
:1099B0000432B2F55C7F43ED027A43ED017AE3ECC9
:1099C000017AF5D1002840F08982934A934B44F8FC
:1099D00002C044F803800131062904F1040405F5AE
:1099E0002565D3D1844BDFED8E2A9FED8E3ADFEDD6
:1099F0008E3ADFF88092DFF880B29FED8C2A202229
:109A00001A8304AB00934FF0000A0FFA8AF3052B78
:109A100000F34A827F4E864B16F80AC01AF803E01C
:109A2000D0464FEA8A038349834A51F8281006EE4C
:109A3000901AF7EE007AF8EE666AB0EE007AB0EEB1
:109A4000675AA6EE875A134493ED007A87EE855A3B
:109A5000B4EEE27AF1EE10FA37EEC55A00F13B822D
:109A6000B4EEC27AF1EE10FA40F37882B0EE677A83
:109A7000DFED677A0EF10101C9B215226F4B5F4F1E
:109A80005F4E142928BF142112FB0C1103EB810136
:109A900012FB0CE2D1EDE45A03EB820367EE255A88
:109AA00093EDE47AB7EE004AE7EE275A4FEA4E0309
:109AB0004FEA0C1234EE454AF5EE007A24EE274ABE
:109AC0001946019302927144CCEB02024FF42563D4
:109AD0001201890003FB08F3A5EE834A8818194494
:109AE0001144574A034434EE234A1144134491ED80
:109AF000007A0098D3ED017AB1EE444AF1EE654A5E
:109B00000EF0010500238024F958002906DBB1F18D
:109B1000FE4FCCBFA9F81840A9F81A40F258002A05
:109B200006DBB2F1FE4FCCBFABF81840ABF81A40E1
:109B3000002D00F02F8106EE901AB8EEE66A65EE71
:109B4000876A0433E5EE276A402BF0EE667AE4EE8E
:109B5000067AA4EEA77AE0EC017AD5D1029B019AAD
:109B6000374ECCEB030C96444FF425634FEA8E0E30
:109B70004FEA0C1C03FB08F80EEB0803E644F04424
:109B80009C4433464344B4448CED007AC3ED027ADE
:109B9000C3ED017A009A0AF1010A4032BAF10C0FC2
:109BA00000927FF432AF144C264A27482749284BAD
:109BB00092ED005A274D284FDFF8B8E0DFED274A35
:109BC000DFF8B880D1F800B0D3ED005A20266683C4
:109BD00004AA90F800C00192002345F8043BA9466E
:109BE00047F8043B65461E4C1E4801991A46F7EE9D
:109BF000006ACC46A6E000BF00180240848900201D
:109C0000448900209C040020C88500203C8A002054
:109C100000000000D0850020C48900201C8A00209C
:109C20006F12033B8FC2F53C0AD7A33BEE7C7F3F0C
:109C3000C08500204CC9002010C9002004A20108E2
:109C4000348A002068C90020B88400200CC9002094
:109C50006CC90020DC89002014C800200000C04E20
:109C60004C85002010850020F44E0108FC0D0108F1
:109C700054F80008001002400008024000040240AE
:109C8000B4EC017AD1ED007AB5EEC07AF1EE10FABB
:109C900073DD12F0010927EE877A00F0B2801CED27
:109CA000014AB8EEC46A36EE076ABDEEC66A16EE21
:109CB00010AA0AF31F0A4CF804ACB4EEE47AF1EEF1
:109CC00010FA40F39580002D40F0B180A54E36F893
:109CD0000390A54EA6F81890F5EEC07AD8F810902B
:109CE000F1EE10FAD8BFF1EE677A19F0080F56D0EE
:109CF000DEF8109019F4007F51D0BBF1000F03D0B3
:109D000014ED017A67EE877A984E53F806A0B146B3
:109D10009944BAF1000F00F0A9800AF1FF3A43F824
:109D200006A0BAF1000F04D1914E4FF0010943F89B
:109D300006900433182B02F1010201F1400100F1F9
:109D400004007CD0DFF83C92994499ED007AB5EE9E
:109D5000407AF1EE10FA93D0D1ED607A91ED006A7D
:109D600067EE277A36EEC77AE6EE077AB4EC017A28
:109D7000B5EEC07AF1EE10FA8BDC002D50D0D6078C
:109D800058BF7C4E4FF080094CBFAEF81A90A6F831
:109D90001A90A1E706EE902AB8EEE66ACFE690EDBB
:109DA000007AF4EEC77AF1EE10FA18DD36EEC56AE5
:109DB00066EE277AE7EE057AC0ED007ABBF1000F78
:109DC00003D014ED017A67EE877AFCEEE77A17EE9E
:109DD000906A4FEA1649664E43F80690A9E736EEB8
:109DE000E56A66EE277AE7EE257AC0ED007AE5E7C8
:109DF000B5B1B9F1000F4BD04FF08009AEF81A9011
:109E00006AE717ED014AB8EEC46A36EE076ABDEE9E
:109E1000C66A16EE10AA0AF31F0A47F804AC4CE70C
:109E2000504E36F80390504EA6F81A9054E7B9F108
:109E3000000F33D04FF08009AEF818904CE763461E
:109E4000019AAC461D464C4B04329D4201927FF470
:109E5000C3AE039B49494A4A4020FFF7D5FC424B19
:109E600004225A830DF2145DBDE8F08FFCEEE77A10
:109E700017EE906AB6F1006F7FF656AF42F2107699
:109E8000C9F800603A4E40F6FA7A43F806A050E767
:109E9000384E4FF08009A6F81A901DE7354E4FF066
:109EA0008009A6F8189017E7AAF106085FFA88F863
:109EB000344A4FEA88031A44D2ED007AF5EE407A2C
:109EC000F1EE10FA3FF466AE2F49304A11F808E07F
:109ED00012F808C0A7E59FED2E7ACBE5012813D034
:109EE00002281FD0032824D0042829D0052812D006
:109EF00006282CD007287FF46EAD264A264B27482B
:109F0000A050274AE25066E5224A234B44F80290CB
:109F1000244AE2505FE51F4A1F4B2348A050234AC2
:109F2000E25058E51B4A1C4B2148A050214AE25000
:109F300051E5184A184B2048A050204AE2504AE503
:109F4000144A154B44F802A044F803B043E5114A03
:109F5000114B1B48A0501B4AE2503CE577EEC77AF4
:109F600088E500BFF0BE0108001802402C890020DF
:109F700054C80020000802401C8A0020DC89002010
:109F800014C8002030850020A8C80020B0C80020D8
:109F900000000000C48900201C8A0020EC8F01080A
:109FA000C09A0108D01801089C640108706F01086C
:109FB000A4230108782E01084C3901082044010827
:109FC000447A0108188501082DE9F04F01208DB071
:109FD0000125014602F0C0FE29460220002402F0BD
:109FE000AFFE4FF002080DF13009294604208DF82C
:109FF0000F508DF80C808DF80D408DF80E4002F05A
:10A000007BFE4FF4407349F8283D514BDFF850B1C7
:10A0100001931846494602F0E5F92846294602F020
:10A020006BFEDFF840A14B4E4B4F4FF4A062494608
:10A030005846029202F0D6F94046294602F05CFEEC
:10A04000494650463022029202F0CCF9019B42462A
:10A050001846082102F066FA019B4246184609217B
:10A0600002F060FA58462A46082102F05BFA584688
:10A070002A460A2102F056FA50464246042102F0CE
:10A0800051FA42465046052102F04CFA334B04A8DF
:10A090001C605C609C60DC601C615C6103F032FEF3
:10A0A0004FF4805304A930460593ADF81040ADF845
:10A0B0001840ADF8124003F0D7FD04A9384603F06C
:10A0C000D3FD6023304607A9ADF81C30ADF81E5013
:10A0D0000994ADF8284003F085FE3046082103F0CE
:10A0E000E3FF304607A903F0BDFE3046082103F028
:10A0F000E3FF304607A903F0FDFE3046082103F0D8
:10A10000E5FF304607A903F03BFF3046082103F086
:10A11000E5FF3046294603F057FE384607A903F00D
:10A1200061FE3846082103F0BFFF384607A903F057
:10A13000E1FE3846082103F0C9FF3846294604F0FD
:10A140003DFA3846294603F03FFE0DB0BDE8F08FDA
:10A1500000080240000400400000014054C80020F4
:10A160000000024000040240F0B4084B084A0949CC
:10A170001F685E689D68DC6818695B69D763166450
:10A180004D63CC635063F0BC9363704754C80020A8
:10A19000000400400000014070B5124C82B0022063
:10A1A000012102F0A9FD4FF4407600232046012250
:10A1B000694602258DF805308DF807308DF80620A8
:10A1C00000968DF8045002F00DF920460821042273
:10A1D00002F0A8F920460921042202F0A3F902B0F6
:10A1E00070BD00BF00040240F0B5154C85B00121E0
:10A1F0004FF4001002F0A4FD04AD204602F0A6F9D1
:10A20000104B45F8103D4FF0000E4FF480624FF4B4
:10A21000804320464BF6FF7734260121ADF804E059
:10A22000ADF80A20ADF80C30ADF80670ADF8086056
:10A2300002F044FA2046694602F0BEF905B0F0BDCE
:10A2400000540040801A0600012070472DE9F041BB
:10A25000364C4FF4961380460E461746236004E0B2
:10A2600023685D1E2560002B5DD031484FF400311E
:10A2700002F062FB0028F3D12D48012102F02CFAF4
:10A280004FF48053236004E023685D1E2560002B9B
:10A2900049D02748274902F03BFB0028F4D04FEA79
:10A2A000480161F07F0101F0FE012148002202F027
:10A2B0002FFA4FF48053236004E023685A1E226073
:10A2C000002B30D01A481C4902F022FB0028F4D0A1
:10A2D0003146174802F0B4FA4FF48053236003E08C
:10A2E00023685A1E2260F3B11148144902F010FB92
:10A2F0000028F5D039460E4802F0A2FA4FF4961322
:10A30000236003E023685A1E226063B108480C49A9
:10A3100002F012FB0028F5D00548012102F0EAF90D
:10A320000020BDE8F0810120BDE8F081A4440020B8
:10A330000054004001000300820007008000070075
:10A340000400001038B51F4C4FF4961305462360E7
:10A3500004E023685A1E2260002B31D01A484FF4C3
:10A36000003102F0E9FA0028F3D11748012102F088
:10A37000B3F94FF48053236003E023685A1E226030
:10A38000F3B11148114902F0C3FA0028F5D0690071
:10A3900061F07F0101F0FE010B48002202F0B8F9E4
:10A3A0004FF48053236003E023685A1E22603BB1C0
:10A3B0000548074902F0ACFA0028F5D0002038BD66
:10A3C000012038BDA44400200054004001000300D7
:10A3D0008200070010B501460A4C0B4802F030FA23
:10A3E0004FF48053236003E023685A1E22603BB180
:10A3F0000548064902F08CFA0028F5D0002010BD6F
:10A40000012010BDA444002000540040800007003B
:10A410000148012102F06EB9005400402DE9F04FCF
:10A4200083B00123994C019380468B464FF0000A7C
:10A430004FF49613236004E023685A1E2260002B19
:10A4400030D093484FF4003102F076FA0028F3D16F
:10A450008F48012102F040F94FF48053236003E05C
:10A4600023685A1E2260EBB189488A4902F050FAEB
:10A470000028F5D04FEA4A0161F07F0101F0FE01AA
:10A480008348002202F044F94FF48053236003E034
:10A4900023685A1E22602BB17D487F4902F038FAAA
:10A4A0000028F5D07A48062102F0CAF94FF480530B
:10A4B000236003E023685A1E22602BB17448774959
:10A4C00002F026FA0028F5D00AF101020AEB8A050B
:10A4D000EDB202EB82094D45009280F2F0806C48AB
:10A4E000002102F0ADF94FF48053236003E02368AC
:10A4F0005A1E22602BB16648684902F009FA00280A
:10A50000F5D06348002102F09BF94FF4805323609B
:10A5100003E023685A1E22602BB15D485F4902F0B8
:10A52000F7F90028F5D005EB4507594818F817103A
:10A5300002F086F94FF4805308EB4706236003E0EE
:10A5400023685A1E22602BB15148544902F0E0F9A9
:10A550000028F5D038F817104D48090A02F070F9B4
:10A560004FF48053236003E023685A1E22602BB10E
:10A5700047484A4902F0CCF90028F5D04448002168
:10A5800002F05EF94FF48053236003E023685A1E03
:10A5900022602BB13E48414902F0BAF90028F5D0BB
:10A5A0003B48002102F04CF94FF48053236003E054
:10A5B00023685A1E22602BB13548384902F0A8F9A9
:10A5C0000028F5D03248B17802F03AF94FF48053C0
:10A5D000236003E023685A1E22602BB12C482F49C8
:10A5E00002F096F90028F5D071882948090A02F08E
:10A5F00027F94FF48053236003E023685A1E22603A
:10A600002BB12348254902F083F90028F5D02048D2
:10A61000002102F015F94FF48053236003E0236812
:10A620005A1E22602BB11A481C4902F071F9002809
:10A63000F5D01748002102F003F94FF4805323604E
:10A6400003E023685A1E22602BB11148134902F01F
:10A650005FF90028F5D00E48317902F0F1F84FF497
:10A660008053236003E023685A1E22602BB1084800
:10A670000A4902F04DF90028F5D0B1880448090ACA
:10A6800002F0DEF84FF4805323600DE0A444002074
:10A690000054004001000300820007008000070012
:10A6A00023685A1E22602BB19D489E4902F030F962
:10A6B0000028F5D00135EDB24D45FFF610AFBAF1E7
:10A6C000020F00F0AA81BAF1030F0ED094480121C5
:10A6D00002F010F8019B042B1AD0019A531CDBB234
:10A6E0000193009B5FFA83FAA2E60020FFF772FE57
:10A6F0000020FFF76FFE9BF82000FFF76BFEBBF812
:10A700002000000AFFF766FE8548012101F0F2FFF4
:10A710004FF49613236003E023685A1E22605BB354
:10A720007F484FF4003102F007F90028F4D17C484B
:10A73000012101F0D1FF4FF48053236003E023682F
:10A740005A1E2260C3B17648774902F0E1F800282A
:10A75000F5D073488821002201F0DAFF4FF48053CE
:10A76000236003E023685A1E22602BB16C486F49B6
:10A7700002F0CEF80028F5D06948062102F060F812
:10A780004FF48053236003E023685A1E22602BB1EC
:10A790006348644902F0BCF80028F5D05D46002605
:10A7A0005F48002102F04CF84FF48053236003E02F
:10A7B00023685A1E22602BB159485A4902F0A8F862
:10A7C0000028F5D05648002102F03AF84FF48053A3
:10A7D000236003E023685A1E22602BB15048514980
:10A7E00002F096F80028F5D04D481BF8061002F04C
:10A7F00027F84FF48053236003E023685A1E226039
:10A800002BB14748474902F083F80028F5D03BF8C0
:10A8100006104348090A02F013F84FF480532360EE
:10A8200003E023685A1E22602BB13D483D4902F0E7
:10A830006FF80028F5D03A48002102F001F84FF4F3
:10A840008053236003E023685A1E22602BB13448F2
:10A85000344902F05DF80028F5D03148002101F0BC
:10A86000EFFF4FF48053236003E023685A1E2260F9
:10A870002BB12B482B4902F04BF80028F5D0284883
:10A88000A97801F0DDFF4FF48053236003E02368D3
:10A890005A1E22602BB12248224902F039F80028C2
:10A8A000F5D069881E48090A01F0CAFF4FF48053A9
:10A8B000236003E023685A1E22602BB1184819490F
:10A8C00002F026F80028F5D01548002101F0B8FF65
:10A8D0004FF48053236003E023685A1E22602BB19B
:10A8E0000F48104902F014F80028F5D00C48002158
:10A8F00001F0A6FF4FF48053236003E023685A1E43
:10A9000022602BB10648074902F002F80028F5D072
:10A910000348297901F094FF4FF4805323600BE042
:10A92000005400408000070001000300820007007F
:10A9300023685A1E22602BB14248434901F0E8FFC8
:10A940000028F5D0A9883F48090A01F079FF4FF4A3
:10A950008053236003E023685A1E22602BB13948DC
:10A96000394901F0D5FF0028F5D006361E2E05F135
:10A9700006057FF415AF3348002101F061FF4FF465
:10A980008053236003E023685A1E22602BB12D48B8
:10A990002D4901F0BDFF0028F5D02A48002101F023
:10A9A0004FFF4FF48053236003E023685A1E226058
:10A9B0002BB12448244901F0ABFF0028F5D02148F1
:10A9C0009BF81E1001F03CFF4FF48053236003E01E
:10A9D00023685A1E22602BB11A481B4901F098FFC8
:10A9E0000028F5D0BBF81E101648090A01F028FF10
:10A9F0004FF48053236003E023685A1E22602BB17A
:10AA00001048114901F084FF0028F5D00D480121BC
:10AA100003B0BDE8F04F01F06DBE0020FFF7DAFC97
:10AA20000020FFF7D7FC9BF82200FFF7D3FCBBF810
:10AA30002200000AFFF7CEFC0248012101F05AFE75
:10AA40004BE600BF00540040800007004A28F8B5DC
:10AA50000D4640F29D804938C7B24226534C4FF410
:10AA60009613236004E023685A1E2260002B2FD027
:10AA70004F484FF4003101F05FFF0028F3D14C48FC
:10AA8000012101F029FE4FF48053236003E0236885
:10AA90005A1E2260E3B14648464901F039FF0028BA
:10AAA000F5D0790061F07F0101F0FE0140480022FD
:10AAB00001F02EFE4FF48053236003E023685A1EFA
:10AAC00022602BB13A483C4901F022FF0028F5D022
:10AAD0003146374801F0B4FE4FF48053236003E061
:10AAE00023685A1E22602BB13148344901F010FF0F
:10AAF0000028F5D02E48002101F0A2FE4FF480532B
:10AB0000236003E023685A1E22602BB128482B499A
:10AB100001F0FEFE0028F5D02548002101F090FE4E
:10AB20004FF48053236003E023685A1E22602BB148
:10AB30001F48224901F0ECFE0028F5D01C48E9B27C
:10AB400001F07EFE4FF48053236003E023685A1E19
:10AB500022602BB11648194901F0DAFE0028F5D021
:10AB6000290A134801F06CFE4FF48053236003E080
:10AB700023685A1E22602BB10D48104901F0C8FE0F
:10AB80000028F5D00A480121BDE8F84001F0B2BD27
:10AB90000B4FA7FB0037FF08C7EB071607EB06169E
:10ABA0000644B6000636F6B258E700BFA4440020BB
:10ABB00000540040010003008200070080000700ED
:10ABC0008988888818282DE9F843C1F30957C1F30B
:10ABD0008926C1F3090504D9192800F04981BDE887
:10ABE000F883954B954CA3FB00284FEA9808C8EBD7
:10ABF0008819C8EB890981444FF496135FFA89F9E3
:10AC0000236004E023685A1E2260002B2ED08C485B
:10AC10004FF4003101F090FE0028F3D18848012163
:10AC200001F05AFD4FF48053236003E023685A1E5D
:10AC30002260DBB18248834901F06AFE0028F5D02A
:10AC40004FEA480141F080017D48002201F060FD9B
:10AC50004FF48053236003E023685A1E22602BB117
:10AC60007748794901F054FE0028F5D009EB4909ED
:10AC70004FEA8901063101F0FE01714801F0E0FD63
:10AC80004FF48053236003E023685A1E22602BB1E7
:10AC90006B486E4901F03CFE0028F5D06848002161
:10ACA00001F0CEFD4FF48053236003E023685A1E69
:10ACB00022602BB16248654901F02AFE0028F5D0D8
:10ACC0005F48002101F0BCFD4FF48053236003E096
:10ACD00023685A1E22602BB159485C4901F018FEC6
:10ACE0000028F5D05648F9B201F0AAFD4FF4805380
:10ACF000236003E023685A1E22602BB15048534959
:10AD000001F006FE0028F5D0390A4D4801F098FD03
:10AD10004FF48053236003E023685A1E22602BB156
:10AD200047484A4901F0F4FD0028F5D04448002185
:10AD300001F086FD4FF48053236003E023685A1E20
:10AD400022602BB13E48414901F0E2FD0028F5D0D8
:10AD50003B48002101F074FD4FF48053236003E071
:10AD600023685A1E22602BB13548384901F0D0FDC6
:10AD70000028F5D03248F1B201F062FD4FF4805363
:10AD8000236003E023685A1E22602BB12C482F4910
:10AD900001F0BEFD0028F5D0310A294801F050FD30
:10ADA0004FF48053236003E023685A1E22602BB1C6
:10ADB0002348264901F0ACFD0028F5D020480021A9
:10ADC00001F03EFD4FF48053236003E023685A1ED8
:10ADD00022602BB11A481D4901F09AFD0028F5D0D8
:10ADE0001748002101F02CFD4FF48053236003E04D
:10ADF00023685A1E22602BB11148144901F088FDC6
:10AE00000028F5D00E48E9B201F01AFD4FF4805346
:10AE1000236003E023685A1E22602BB108480B49C7
:10AE200001F076FD0028F5D0290A054801F008FD5B
:10AE30004FF4805323600FE0CDCCCCCCA444002051
:10AE4000005400400100030082000700800007005A
:10AE500023685A1E22602BB19148924901F058FD97
:10AE60000028F5D08E480121BDE8F84301F042BC2E
:10AE70008D4C4FF49613236003E023685A1E226022
:10AE80005BB387484FF4003101F056FD0028F4D140
:10AE90008348012101F020FC4FF48053236003E03C
:10AEA00023685A1E2260C3B17D48804901F030FDFD
:10AEB0000028F5D07A488421002201F029FC4FF4C3
:10AEC0008053236003E023685A1E22602BB174482C
:10AED000774901F01DFD0028F5D07148422101F0AD
:10AEE000AFFC4FF48053236003E023685A1E2260B6
:10AEF0002BB16B486B4901F00BFD0028F5D0684879
:10AF0000002101F09DFC4FF48053236003E023688F
:10AF10005A1E22602BB16248624901F0F9FC0028F8
:10AF2000F5D05F48002101F08BFC4FF48053236083
:10AF300003E023685A1E22602BB15948594901F099
:10AF4000E7FC0028F5D05648E9B201F079FC4FF44F
:10AF50008053236003E023685A1E22602BB15048BF
:10AF6000504901F0D5FC0028F5D0290A4C4801F0E1
:10AF700067FC4FF48053236003E023685A1E22606D
:10AF80002BB14748474901F0C3FC0028F5D044489D
:10AF9000012101F0AFFB4FF49613236003E0236817
:10AFA0005A1E22605BB33E484FF4003101F0C4FCEE
:10AFB0000028F4D13A48012101F08EFB4FF4805370
:10AFC000236003E023685A1E2260C3B13448374926
:10AFD00001F09EFC0028F5D031488621002201F0C6
:10AFE00097FB4FF48053236003E023685A1E2260CE
:10AFF0002BB12B482E4901F08BFC0028F5D02848B6
:10B00000422101F01DFC4FF48053236003E02368CC
:10B010005A1E22602BB12248224901F079FC0028F7
:10B02000F5D01F48002101F00BFC4FF48053236042
:10B0300003E023685A1E22602BB11948194901F018
:10B0400067FC0028F5D01648002101F0F9FB4FF409
:10B050008053236003E023685A1E22602BB11048FE
:10B06000104901F055FC0028F5D00D48F1B201F06F
:10B07000E7FB4FF48053236003E023685A1E2260ED
:10B080002BB10748074901F043FC0028F5D0310AED
:10B09000034801F0D5FB4FF4805323600EE000BF5E
:10B0A0000054004080000700A44400200100030079
:10B0B0008200070023685A1E22602BB14D484E497A
:10B0C00001F026FC0028F5D04A48012101F012FBCE
:10B0D0004FF49613236003E023685A1E22605BB38B
:10B0E00044484FF4003101F027FC0028F4D14148D6
:10B0F000012101F0F1FA4FF48053236003E023684B
:10B100005A1E2260C3B13B483C4901F001FC0028B3
:10B11000F5D038488821002201F0FAFA4FF4805324
:10B12000236003E023685A1E22602BB13148344962
:10B1300001F0EEFB0028F5D02E48422101F080FB03
:10B140004FF48053236003E023685A1E22602BB122
:10B150002848294901F0DCFB0028F5D025480021CA
:10B1600001F06EFB4FF48053236003E023685A1E06
:10B1700022602BB11F48204901F0CAFB0028F5D0FE
:10B180001C48002101F05CFB4FF48053236003E076
:10B1900023685A1E22602BB11648174901F0B8FBEC
:10B1A0000028F5D01348F9B201F04AFB4FF4805360
:10B1B000236003E023685A1E22602BB10D480E491C
:10B1C00001F0A6FB0028F5D0390A0A4801F038FB47
:10B1D0004FF48053236005E023685A1E2260002B41
:10B1E0003FF440AE0348044901F092FB0028F3D03D
:10B1F00038E600BF00540040800007000100030053
:10B2000082000700002110B50A460446FFF71EF829
:10B21000142100BF0139FCD120468022FFF716F827
:10B22000142100BF0139FCD120462022FFF70EF87F
:10B23000204601211122BDE81040FFF707B800BFEA
:10B2400038B50546FEF7A8FFFEF7CEFF3DB1002456
:10B2500020460134E4B2FFF7D5FFAC42F8D138BD47
:10B2600032B1C9B20244034603F8011B9342FBD139
:10B27000704700BF10B43AB10244034611F8014BC5
:10B2800003F8014B9342F9D15DF8044B704700BFBE
:10B2900070B5012082B0014601F02EFD4FF0005044
:10B2A000012101F04DFD002430220323694610489E
:10B2B00000928DF804308DF8074001F093F80D4BA3
:10B2C0004FF420621946204604254026DC605E606B
:10B2D0009A601D6003F0D8FA2046012103F0F2FACB
:10B2E000284647F6F07103F033FB02B070BD00BF93
:10B2F000000002406CC8002010B5012184B00F4C42
:10B30000102001F01DFD01A802F0FCFC00234FF409
:10B31000804201A920460292ADF80430ADF80C300D
:10B32000ADF8063002F0A0FC2046202103F03CFAE4
:10B330002046012102F048FD04B010BD001000407D
:10B3400010B5082082B0012101F0D6FC02A94FF40B
:10B350006063002441F8083D07488DF8044001234C
:10B3600069468DF807308DF8054001F03BF8034B36
:10B370001C7002B010BD00BF000C02407CC8002051
:10B3800010B40C4A0C4B146910691A780B4914F468
:10B39000006F0CBF00240224C0F38020204302F081
:10B3A0000F0200EB8202885C18705DF8044B00F01D
:10B3B00030007047000C02407CC80020D8BE010855
:10B3C00010B40948094C0023E25C012A05D01A5C3C
:10B3D00051B20929DCBF01321A540133062BF3D1D3
:10B3E0005DF8044B704700BFB8C80020C8C80020F3
:10B3F00010B40948094C0023E25C012A06D01A5C0B
:10B4000051B20029C4BF02F1FF321A540133062B96
:10B41000F2D15DF8044B7047B8C80020C8C80020BE
:10B42000024B1A7810441870704700BFC6C800203D
:10B4300000232DE9F0071C4A1C4E1D4FC0F1000AE5
:10B440005FFA80FC99464FF00A0813E06546995C64
:10B450000D44EDB2E9B24CB2002C995403EB020159
:10B460001ADB0A2C03DD0A3DDD5581F8008001332B
:10B47000062B16D0F15C0129F9D00028E6DADD5D53
:10B4800069B20029E2DD8A450544D3BFDD55EDB23E
:10B4900003F807900025DAE703F802900133062B42
:10B4A000E8D1BDE8F0077047B8C80020C8C8002040
:10B4B00028850020044B1A78110654BFFF2202F1A0
:10B4C000FF321A70704700BFAEC80020044B1A78D4
:10B4D00051B20029D4BF012201321A70704700BF57
:10B4E000AEC800200B4B93F900208AB993F90120D4
:10B4F00072B993F902205AB993F9032042B993F92A
:10B5000004202AB993F90500003018BF01207047C4
:10B510000120704780C80020174BD3ED027AF5EE6A
:10B52000407AF1EE10FA25D1D3ED037AF5EE407AA8
:10B53000F1EE10FA1ED1D3ED047AF5EE407AF1EE79
:10B5400010FA17D1D3ED057AF5EE407AF1EE10FA44
:10B5500010D1D3ED067AF5EE407AF1EE10FA09D16A
:10B56000D3ED077AF5EE407AF1EE10FA0CBF002029
:10B570000120704701207047288500202DE9F00F39
:10B580005E4C5F4AE18A92F90050C1F30721013114
:10B5900086B0C9B20023A94200930193029303939A
:10B5A0000493059308DAE68A40F6B473B6B29E4275
:10B5B0007FD91023556002E000F38380FF238B4284
:10B5C00001D0002871D053684E4EC9B211704AB2F2
:10B5D0009A42BFEE007A96F902A0F7EE007A4FF099
:10B5E0006303D8BFF0EE477A4FF000099346B1EEFF
:10B5F000677AAAEB420A009301930393049305939D
:10B600004D46414A535D012B71D0022D6FD0012D63
:10B61000D4BFFDEEC76AFDEEE76A3C4A16EE908A9B
:10B620005FFA88F805F802804FFA88F8C8EB0A0339
:10B630004344132B02DD143B132BFCDC002B01DAFB
:10B640001433FDD401210F46002007E0B4569C427C
:10B6500043D0062913D00131C9B20130C2B2AA4287
:10B66000F7D00DF1180C0CEB820454F8184C9C42E6
:10B67000ECD1AA42EADA06294FF00007EBD1002FFD
:10B68000D6D04DF809300135062D09F10409DA4408
:10B69000B7D103A807C81E4B009E019D029C1E70D7
:10B6A0005D709C70D87019715A7106B0BDE8F00FCA
:10B6B0007047E38A9BB24B33C3F307230133DBB2FA
:10B6C00078E7E38A9BB24B2B15D9E38A9BB24B3BBD
:10B6D000C3F307230133DBB26CE7DFF82CC01CF89F
:10B6E0000240012CC7D0022AB3D10027B3E7735719
:10B6F0004DF80930C7E701235CE700BFA0850020B3
:10B70000A8440020A8C80020C8C8002080C8002085
:10B71000A0C800202DE9F00FBD4ABE4B1088DFF80D
:10B720001893BD4A99F80010DFF80883DFF8FCC2CF
:10B73000BA4FBB4EBB4DDFF804A380B203EB8003CE
:10B7400093ED027A82B04FF0000B0023F7EE006A0F
:10B75000F2EC017AF5EEC07AF1EE10FAC8BF77EE9E
:10B76000877AF4EEE67AC8BF42ED017AF1EE10FA7C
:10B770000FDB18F8031058579C5D03F80C10884233
:10B7800008BF0021DC5508BF0AF8031042F804BCCA
:10B7900001210133062BDBD1DFF8A48289F80010E8
:10B7A000D8ED027AF5EE407AF1EE10FA07D1D8ED35
:10B7B000036AF5EE406AF1EE10FA00F069819A4BE7
:10B7C00095481B88974EDFF87CC2009001934FF09C
:10B7D000000BF5EE407AF1EE10FA1FFA8BF276D1FB
:10B7E000924916F80B301BF801105DB28D4261D002
:10B7F000DFF848920021012702E00131062913D029
:10B8000088B28242F9D07456AC42F6D111F80C409D
:10B81000012C67D0904265D319F90100013100284D
:10B8200008BF00270629EBD119F80B80002F60D143
:10B83000DFF814A206EB0B05B8F1000F32D14FF080
:10B84000010109F80B104FF001085BB201338AFBCC
:10B850000310D917C1EBE00101EB8101A3EB8103D8
:10B860002B700023012702E00133062B15D099B27B
:10B870008A42F9D095F90040F0568442F4D113F889
:10B880000C00012830D08A422ED819F90310013358
:10B89000002908BF0027062BE9D157BB2B78B8F148
:10B8A000000FCCD04FFA88F10029CEDCF3B9132376
:10B8B0002B70D6E75E4A5A4B1BF8022013F80B1088
:10B8C0008A4204D00BF80320009A82ED007A009B94
:10B8D0000BF1010B0433BBF1060F00936AD0D3EDDB
:10B8E000007A76E7002788E70027BDE7013B2B7049
:10B8F000B7E74FFA88F3002B60DD4E4F4C4B4849B9
:10B90000DDF8008007EB0B050BEB03092B7888EDC6
:10B91000007A0BEB010A59B2122948DD01994FF068
:10B920000000287011B39AF90010DFF8208199F90E
:10B930000030013188FB0184C817DFF81081013322
:10B94000C0EB640088FB038400EB800800EB480038
:10B950004FEAE378C8EB6404081A04EB840104EBB3
:10B9600041041B1B8AF8000089F8003000234FF0C7
:10B97000010802E00133062B12D099B28A42F9D0B5
:10B9800095F90040F8568442F4D113F80C000128D0
:10B9900001D09142EED20133062B4FF00008ECD1DA
:10B9A000B8F1000F93D12B7859B21229B6DC0133CC
:10B9B0002B70DBE702B0BDE8F00F7047B8F1000F65
:10B9C00085D01C4F1A4B1649009807EB0B050BEB63
:10B9D000030A2B7880ED007A0BEB0109002B54D180
:10B9E000019913232B7079B199F80030002B40F0A6
:10B9F0008D800A2389F800309AF80030002B40F03F
:10BA000081800A238AF8003000234FF0010822E0E9
:10BA1000A0850020A844002030850020D08500208B
:10BA2000B0C80020A0C8002028C90020C085002080
:10BA3000B8C80020A8C800200085002080C80020C9
:10BA400028850020C8C8002067666666E9A28B2E9C
:10BA50000133062B12D099B28A42F9D095F90040F1
:10BA6000F8568442F4D113F80C00012801D0914219
:10BA7000EED20133062B4FF00008ECD1B8F1000FE5
:10BA80007FF425AF2B78002BAAD0013B2B70BBE7AE
:10BA9000D8ED046AF5EE406AF1EE10FA7FF48FAE4D
:10BAA000D8ED056AF5EE406AF1EE10FA7FF487AE44
:10BAB000D8ED066AF5EE406AF1EE10FA7FF47FAE3B
:10BAC000D8ED076AF5EE406AF1EE10FA7FF477AE32
:10BAD0007A4A137859B200291CDD013B784F794E20
:10BAE0007948137001250023FA5C3AB9195CF554C2
:10BAF0004CB2122CD6BF01311A5419540133062B03
:10BB0000F2D15CE6013B8AF800307DE7013B89F821
:10BB1000003071E7002B40F0B8806C48007801904D
:10BB200000283FF44CAE664F69496A4EDFF8B0B169
:10BB300000914FF00009BC461CF809301FFA89F546
:10BB4000002B40F08680019A16F80930D1B20B44E0
:10BB5000DBB25AB2002A06F8093006DA1433DBB237
:10BB60005AB2002AFADB06F80930132A06DD143B24
:10BB7000DBB25AB2132AFADC06F80930524810F840
:10BB800009300B44DBB259B2002900F8093007DA5A
:10BB90001433DBB259B20029FADB4B4800F8093004
:10BBA000132907DD143BDBB259B21329FADC4648EE
:10BBB00000F809300023012402E00133062B0FD0E6
:10BBC00099B28D42F9D0F0569042F6D11CF803009C
:10BBD000002858D101338D4288BF0024062BEFD1B5
:10BBE00074BB019906EB09044FFA81FABAF1000F10
:10BBF00040DD94F9003001338BFB0321DA17C2EBEF
:10BC0000E10202EB8202A3EB8203237000230127EF
:10BC100002E00133062B11D09AB29542F9D094F983
:10BC20000000F1568842F4D11CF8031009B9AA4269
:10BC3000EFD20133062B4FF00007EDD1002FD5D006
:10BC40002548264A19F80030009909F8023081ED9C
:10BC5000007A009B09F101090433B9F1060F009342
:10BC60007FF46AAFD8ED027ADFF86080002388F8AD
:10BC70000030A4E523781BB94FF013032370C5E708
:10BC8000013B2370C2E7002497E7013313700C4F88
:10BC90000C4D0D490023FF24132004E058540133B8
:10BCA000062B3FF48CADFA5C002AF8D15A5CEC54B8
:10BCB000561E002AF2D05E54F1E700BFAEC8002045
:10BCC000C8C8002080C80020A0C80020C6C8002026
:10BCD00030850020A8C80020B8C80020B0C80020C7
:10BCE00067666666194BDFED1A7A93ED007A19489C
:10BCF00077EE277AB7EE007A30B4F4EEC77AF1EE39
:10BD000010FAC4BF00221A60134AD8BFC3ED007AEC
:10BD100093ED007A1278114D114C002302E00433A8
:10BD2000182B10D0012AFAD1E918D1ED007AE15A86
:10BD3000F4EEC77AF1EE10FA03F10403ACBF01830D
:10BD40004183182BEED130BC704700BF48850020DE
:10BD50000AD7A33C00180240B88400204C8500207C
:10BD6000F0BE01082DE9F843204EB38B40F2DC52BF
:10BD7000591C9342B1832AD9B27F1D4FDFF86C80E2
:10BD8000DFF870900132D2B200230F2AB38394BF40
:10BD9000B277B3770125002414F0FF0019D03318CF
:10BDA00093F8203063B198F81E304BB93B5C53B91F
:10BDB000FDF77AFB062D0AD00135EDB20134EBE731
:10BDC0003B5C002BF4D1FDF779FB062DF4D1BDE8E7
:10BDD000F88399F80030002BE1D0B37F1BB91846E7
:10BDE000FDF762FBE8E7FDF769FBE5E74885002022
:10BDF000C8C80020E0840020304931480A8A4B8BB3
:10BE000000889BB213FA82F207EE902AFAEECA7A01
:10BE1000B7EE007AF4EEC77AF1EE10FAD8BF9FEDD4
:10BE2000297A294AC8BFDFED277AD2ED016A274B6C
:10BE3000D8BF67EE877A9FED267AE6EE877A872865
:10BE4000C2ED017AC3ED007A2BD000209860186112
:10BE5000488A898BD2ED026A89B211FA80F007EE26
:10BE6000900AFAEECA7AB7EE007AF4EEC77AF1EEEB
:10BE700010FAD4BF9FED137ADFED127A1549D8BFBF
:10BE800067EE877A9FED127A0988E6EE877AF629BF
:10BE9000C2ED027A0AD000225A60DA60C3ED057A58
:10BEA0007047C3ED027AC3ED047AD1E7C3ED017A9E
:10BEB000C3ED037AC3ED057A704700BFA08500206B
:10BEC000CEC8002000D7A33BB884002010C90020B2
:10BED00052B87E3FDEC80020294ADFED2A6A92ED83
:10BEE0000A5AD2ED0B5ADFED283A9FED284A30B4BA
:10BEF0000432274D274C0223B7EE006A0AE076EEA3
:10BF0000454A013364EEA77A082BE7EE057A42ED45
:10BF1000017A2BD0581E35F8131034F8100080B277
:10BF200004EE900A89B2F8EE647A04EE901A67EE95
:10BF3000A67AB8EE647AE7EE267AF4EEC67AF1EEE7
:10BF400010FA15DDF7EE007AB2EC017AF4EEC77A5A
:10BF5000F1EE10FAD3DC76EE654A013364EEA77A8F
:10BF6000082BE7EE257A42ED017AD3D130BC704739
:10BF7000F4EE637AF1EE10FA98BFF0EE447AE3E75C
:10BF800048850020000080394260E53B0000000049
:10BF9000A0850020908500202DE9F843374C384DCE
:10BFA0006088698880B2FCF7CDF90F285FDC354FD7
:10BFB000354C364BD4ED0C6ADFED357A1B889FED9E
:10BFC000357ADFF8E480B8EE666A9BB266EE277ACF
:10BFD00006EE103AFCEEE77AF8EEC66AF8EE677AFB
:10BFE000D8F80C10E6EE877AFCEEE77A17EE900AA6
:10BFF000C4ED0C7AFCF7A6F9322818DC264B186839
:10C000003A68264B264D10449C1D002240F6FF76D0
:10C0100013F8011F29B9B0F5805F34BF01463146DE
:10C020005151A34202F10402F2D1BDE8F883256B1D
:10C0300094F834601B48DFF86890C8F80C50002171
:10C040000B4604F120084FF0010CC25C2AB103F842
:10C0500008C049F82350013101260133062BF4D1E1
:10C0600084F834600C4B0029C9D11D60C7E7628891
:10C070006388044F6A809BB23B6099E7A0850020EB
:10C080002CC9002008C90020488500209085002088
:10C09000A4707D3F00D7233C64C900206785002041
:10C0A0004CC9002000C90020B8840020444B1B6903
:10C0B00013F4807365D1434A1360414B1B6913F439
:10C0C000004F414B0CBF0622F6221A803F4B1B69E2
:10C0D00013F0040F3E4B0CBF012287221A80384B0D
:10C0E0001B6913F4804349D03A4B01221A803A4B22
:10C0F0001B699A0538D43949394A3A4B0B601360A9
:10C10000354B394A1B69116903F4807399422AD06F
:10C1100013611BB3354B1B889BB2C72B3CD907EE71
:10C12000103ADFED336AF8EEC77AB7EE007A67EEC1
:10C13000A66AB5EE006AC7EE266A002267EE867A26
:10C1400077EE666AC7EE277AF5EEC06AF1EE10FA6E
:10C1500077EE677A24D5274B9A6224E0254B26494F
:10C16000264A9962DA627047184B1B691B070CD488
:10C170001A491B4A224B0B601360C1E7154A138012
:10C18000B5E7104B01221A6097E7144A144B154883
:10C190001B4910601960B3E7DFED1A7ADFED1A6A08
:10C1A000144BC3ED0A6AF5EEC07A9FED187AF1EEF2
:10C1B00010FA48BFF0EE477AC3ED0B7A704700BF24
:10C1C000000C02400CC90020DEC800200004024020
:10C1D000CEC8002028C900200010024068C90020F5
:10C1E0006CC900209BC97F3FB8840020A085002037
:10C1F000CDCCCC3D488500206666663F3333733F27
:10C200002FF97F3F48E17A3F3333733F000000004E
:10C2100070B5064602F064FCF32002F0F9FC094D0B
:10C22000002402E00434302C09D02B59B342F9D158
:10C2300060000221043402F025FD302CF5D102F01B
:10C240005FFC70BD08BF010838B50D46044602F01A
:10C2500047FCF32002F0DCFC2146284602F0FCFDFE
:10C2600002F04EFC38BD00BF00687047F8B50D46BF
:10C270001646074602F034FCF32002F0C9FC2846BB
:10C280003146043502F0E8FD4EB100242846395904
:10C29000043402F0E1FDB44205F10405F6D302F0E6
:10C2A0002FFC0020F8BD00BF51F8043B136010B410
:10C2B0003BB1002351F8044BC45014680433A3422B
:10C2C000F8D300205DF8044B704700BF08B53C4B25
:10C2D000984224D03B4B98422BD03B4B984232D0D3
:10C2E0003A4B984239D03A4B984240D0394B984219
:10C2F00047D0394B98424ED0384B984255D0384BA6
:10C30000984200D008BD4FF48070012100F030FD4C
:10C310004FF480700021BDE8084000F029BD0120E5
:10C32000014600F025FD01200021BDE8084000F095
:10C330001FBD0220012100F01BFD02200021BDE8ED
:10C34000084000F015BD0420012100F011FD04207B
:10C350000021BDE8084000F00BBD0820012100F0DD
:10C3600007FD08200021BDE8084000F001BD1020B5
:10C37000012100F0FDFC10200021BDE8084000F084
:10C38000F7BC2020012100F0F3FC20200021BDE8B3
:10C39000084000F0EDBC4020012100F0E9FC402005
:10C3A0000021BDE8084000F0E3BC8020012100F03E
:10C3B000DFFC80200021BDE8084000F0D9BC00BFB0
:10C3C000000002400004024000080240000C02404D
:10C3D000001002400014024000180240001C0240FD
:10C3E0000020024000222DE9F00713460E680127C5
:10C3F0004FF0030804E00133102B02F102022ED0AB
:10C4000007FA03F404EA0605A542F4D1D0F8009037
:10C4100091F804C008FA02F4E44304EA0909C0F8F8
:10C420000090D0F800900CFA02FA0CF1FF3C5FFA91
:10C430008CFC4AEA0909BCF1010FC0F8009011D93F
:10C44000C56891F807C02C40C460C5680CFA02F4B6
:10C4500001332C43102BC46002F10202D0D1BDE89D
:10C46000F0077047D0F808A091F8059091F806C041
:10C4700004EA0A0AC0F808A0D0F808A009FA02F9EC
:10C4800049EA0A09C0F80890D0F8049029EA05059D
:10C49000456045680CFA03FC1FFA8CFC4CEA050564
:10C4A0004560CDE700234FF6FF72026003714371D0
:10C4B0008371C371704700BF82B04FF48033019322
:10C4C000019B0B430193019BC361C161019BC3614C
:10C4D000C3690193C369019302B0704703691942AC
:10C4E0000CBF002001207047006980B2704700BF78
:10C4F000436919420CBF002001207047406980B297
:10C50000704700BF01837047418370470AB9418378
:10C5100070470183704700BF4161704743695940CC
:10C5200041617047CB0800EB830001F0070110B4B4
:10C530008900046A0F238B4024EA03030362036A21
:10C540005DF8044B8A4013430362704708B5174BEC
:10C55000984212D0164B98421BD0164B984200D0EE
:10C5600008BD4FF40000012100F026FC4FF400004C
:10C570000021BDE8084000F01FBC4FF4001001216D
:10C5800000F01AFC4FF400100021BDE8084000F054
:10C5900013BC4FF48000012100F00EFC4FF480002A
:10C5A0000021BDE8084000F007BC00BF0054004077
:10C5B00000580040005C0040F0B5044685B0684675
:10C5C0000D46A68800F0E2FA029930482A68DFF8A2
:10C5D000C4C0A0FB013026F03F063604800C360CA8
:10C5E00087B23E43A680238823F001031B041B0C63
:10C5F0006245238023D85300B1FBF3F39BB2032B96
:10C6000007F1010798BF04232784A38323886E8939
:10C61000A8882989AA899BB243F001032380238833
:10C6200023F4816323F002031B0430431B0C0343F8
:10C630000A439BB292B22380228105B0F0BDEE88FE
:10C640004BF6FF739E421AD002EB820202EB82028B
:10C65000B1FBF2F39BB243F48043C3F30B020AB97C
:10C6600043F001034FF49671094A01FB00F082FB8D
:10C6700000108009013043F400432084C5E702EB39
:10C680004202B1FBF2F39BB2E7E700BF83DE1B433C
:10C69000D34D6210A0860100002310B44BF6FF7149
:10C6A00041F288344FF480420460C18082818380EB
:10C6B000038143815DF8044B704700BF038829B9AB
:10C6C00023F001031B041B0C038070479BB243F053
:10C6D00001030380704700BF038829B923F48073E6
:10C6E0001B041B0C038070479BB243F480730380D0
:10C6F000704700BF038829B923F400731B041B0C87
:10C70000038070479BB243F400730380704700BFFF
:10C710001AB901F0FE010182704741F00101018266
:10C72000704700BF038829B923F480631B041B0CE6
:10C73000038070479BB243F480630380704700BF5F
:10C7400083899BB201F0FE0123F0FE03194381812E
:10C75000704700BF838929B923F001031B041B0C18
:10C76000838170479BB243F001038381704700BF10
:10C77000038829B923F040031B041B0C0380704776
:10C780009BB243F040030380704700BF038819B990
:10C79000C3F30E03038070476FEA43436FEA5343CA
:10C7A0009BB20380704700BF038829B123F0800348
:10C7B0001B041B0C038070479BB243F08003038073
:10C7C000704700BFB1F5804F838B05D023F48043C1
:10C7D0001B041B0C838370479BB243F48043838309
:10C7E000704700BFB1F5006F038805D023F40063E4
:10C7F0001B041B0C038070479BB243F4006303804F
:10C80000704700BFB1F5005F038805D023F40053E3
:10C810001B041B0C038070479BB243F4005303803E
:10C82000704700BF038829B923F010031B041B0CB9
:10C83000038070479BB243F010030380704700BF32
:10C8400001827047008AC0B2704700BF038829B9CF
:10C8500023F480531B041B0C038070479BB243F4EA
:10C8600080530380704700BFB1F5006F038805D087
:10C8700023F400631B041B0C038070479BB243F43A
:10C8800000630380704700BF038829B923F02003A9
:10C890001B041B0C038070479BB243F020030380F2
:10C8A000704700BF008BC0F307207047838829B909
:10C8B00023F400631B041B0C838070479BB243F47A
:10C8C00000638380704700BF838829B923F48053B5
:10C8D0001B041B0C838070479BB243F480538380FE
:10C8E000704700BF82B0002301930190019B19445F
:10C8F0000191019B188880B202B0704783889BB277
:10C900001AB923EA01018180704719438180704779
:10C91000828A038B90B240EA034021F07F431840A3
:10C920000B1A584258417047828A038B90B240EAF2
:10C93000034020F07F40704782B000230A0F00932D
:10C94000019301900092009B21F07F4153B1019B24
:10C9500014330193019B1B6819420CBF0020012076
:10C9600002B07047019B1833090C0193F2E700BF36
:10C97000C94389B2818270478388808A80B2084027
:10C980009BB206D001F0E06113EA11410CBF002018
:10C9900001207047C94389B2818270470F4B10480C
:10C9A0001968002241F0010130B419609A601968D9
:10C9B0000C4D0D4C21F0A85121F4102119605D603F
:10C9C000C3F88440C3F88800196821F480211960F5
:10C9D00030BCDA60C3F88C20704700BF00380240DA
:10C9E000003000241030002400300020024B0022D0
:10C9F0001A701870704700BF0238024082B00023DE
:10CA00000B4A019313689B030CD4019B01330193E0
:10CA1000019BB3F5A06FF5D1054B1868C0F34040FA
:10CA200002B07047019B01330193019BF4E700BF03
:10CA300000380240034B1A6822F0F80242EAC000B4
:10CA40001860704700380240014B1860704700BF03
:10CA500000004742064B002201281A701A7005D0C8
:10CA6000042802D105221A70704770471870704769
:10CA700070380240014B1860704700BF800E47427B
:10CA800030B4029C064D40EA04605B080143013B60
:10CA900041EA821242EA03436B6030BC704700BF38
:10CAA00000380240014B1860704700BF60004742E9
:10CAB000120742EA0161034B41EA8010C3F8840087
:10CAC000704700BF00380240014B1860704700BF3C
:10CAD00068004742120742EA0161034B41EA8010B5
:10CAE000C3F88800704700BF00380240014B18604F
:10CAF000704700BF70004742014B1860704700BF8D
:10CB00004C004742034B9A6822F0EC621143084301
:10CB10009860704700380240034B9A6822F07842D0
:10CB2000114308439860704700380240034B9A68ED
:10CB300022F0030210439860704700BF00380240A3
:10CB4000024B986800F00C00704700BF00380240AC
:10CB5000034B9A6822F0F00210439860704700BFC0
:10CB600000380240034B9A6822F4E0521043986068
:10CB7000704700BF00380240034B9A6822F46042BD
:10CB800042EAC00098607047003802401F4A93682C
:10CB900003F00C03042B10B41BD0082B1CD01C4B2F
:10CBA00003601A491B4A8C68C4F30314145DE34004
:10CBB00043608C68C4F38224145D23FA04F4846017
:10CBC00089685DF8044BC1F34231525CD340C360C5
:10CBD0007047114B0360E4E7546851685268630280
:10CBE0004CBF0D4B0A4B01F03F01C2F38812B3FB5F
:10CBF000F1F303FB02F3054A5268C2F3014201322A
:10CC00005200B3FBF2F30360CBE700BF00380240F1
:10CC10000024F400CC84002000127A0000F4407359
:10CC2000B3F5407F09D1084A916820F0704321F4A0
:10CC3000F81123F440730B439360034B1A6FC0F356
:10CC40000B0010431867704700380240014B186012
:10CC5000704700BF3C0E4742014B1860704700BF51
:10CC6000400E4742014B1860704700BF5C014742CD
:10CC7000044BD3F88C20013822F01F020243C3F882
:10CC80008C20704700380240054BD3F88C200138C7
:10CC900022F4F85242EA0022C3F88C20704700BF09
:10CCA00000380240044BD3F88C2022F44012104389
:10CCB000C3F88C00704700BF00380240044BD3F823
:10CCC0008C2022F440021043C3F88C00704700BF50
:10CCD00000380240044BD3F88C2022F44032104339
:10CCE000C3F88C00704700BF00380240014B186049
:10CCF000704700BFE0114742044B1A6B19B922EA92
:10CD000000001863704710431863704700380240F2
:10CD1000044B5A6B19B922EA00005863704710435C
:10CD20005863704700380240044B9A6B19B922EAE5
:10CD300000009863704710439863704700380240C2
:10CD4000044B1A6C19B922EA0000186470471043AA
:10CD50001864704700380240044B5A6C19B922EA33
:10CD60000000586470471043586470470038024010
:10CD7000044B1A6919B922EA000018617047104380
:10CD80001861704700380240044B5A6919B922EA09
:10CD900000005861704710435861704700380240E6
:10CDA000044B9A6919B922EA000098617047104350
:10CDB0009861704700380240044B1A6A19B922EA98
:10CDC0000000186270471043186270470038024034
:10CDD000044B5A6A19B922EA00005862704710439E
:10CDE0005862704700380240044B1A6D19B922EAA4
:10CDF00000001865704710431865704700380240FE
:10CE0000044B5A6D19B922EA000058657047104367
:10CE10005865704700380240044B9A6D19B922EAF0
:10CE200000009865704710439865704700380240CD
:10CE3000044B1A6E19B922EA0000186670471043B5
:10CE40001866704700380240044B5A6E19B922EA3E
:10CE5000000058667047104358667047003802401B
:10CE6000044B1A7819B922EA000018707047104371
:10CE7000187070470D3802404309012B0BD0022B6C
:10CE8000094B0CBF1B6F5B6F00F01F0023FA00F013
:10CE900000F001007047044B1B6800F01F0023FAEC
:10CEA00000F000F00100704700380240024B5A6F5A
:10CEB00042F080725A67704700380240034BDB68CB
:10CEC00018420CBF00200120704700BF003802400C
:10CED000014B1870704700BF0E38024008B5174B61
:10CEE000984212D0164B98421BD0164B984200D055
:10CEF00008BD4FF400400121FFF75EFF4FF40040F2
:10CF00000021BDE80840FFF757BF4FF480500121D2
:10CF1000FFF75EFF4FF480500021BDE80840FFF7A7
:10CF200057BF4FF480400121FFF746FF4FF4804088
:10CF30000021BDE80840FFF73FBF00BF00300140BF
:10CF400000380040003C00402DE9F007B1F802A095
:10CF5000B1F80090B1F804800F894E898D89CC8991
:10CF6000B1F806C00A8A03884AEA090141EA0801C1
:10CF700041EA0C01394331432943214303F441532E
:10CF80000B439BB20380838B23F400631B041B0CB5
:10CF90008383BDE8F0070282704700BF838B8A68F5
:10CFA00023F47B6323F00F031B042DE9F0031B0C18
:10CFB000022483830484B0F81CC0A2421FFA8CFCB4
:10CFC00053D02B4B8C889D68002C0CBF4FF0010870
:10CFD0004FF002082D0243D4254BDFF89C90D3F884
:10CFE0008450D3F884605F68CB8807F03F07C5F3AF
:10CFF0008815B9FBF7F7B3F5007FC6F3027605FB9A
:10D0000007F5B5FBF6F516BF4FEA48182D0AB5FB34
:10D01000F8F505EB85056D00B5FBF2F20532154D0F
:10D0200092B2A5FB0262D2085508AE1EB6B202F05B
:10D030000102FD2E94BF45EA022202220F884E888B
:10D040008D894CEA070141F40061314329431343C0
:10D0500089B20C439BB203848483BDE8F00370471C
:10D060009D6825F400059D60B6E78C88CB88E5E7D0
:10D0700000380240CDCCCCCC00127A00002307222D
:10D080000282038043808380C38003814381838144
:10D09000C381704700230222826003804380838023
:10D0A000C3808381704700BF038829B923F0400300
:10D0B0001B041B0C038070479BB243F040030380AA
:10D0C000704700BF838B29B923F480631B041B0CBA
:10D0D000838370479BB243F480638383704700BFB0
:10D0E000038823F400631B041B0C038003889BB29A
:10D0F00019430180704700BFB1F5804F038805D008
:10D1000023F480431B041B0C038070479BB243F441
:10D1100080430380704700BF4FF6FF639942038846
:10D1200004D09BB243F480730380704723F4807370
:10D130001B041B0C03807047838829B923F0040368
:10D140001B041B0C838070479BB243F00403838055
:10D15000704700BF838829B923F010031B041B0C00
:10D16000838070479BB243F010038380704700BFF9
:10D17000838B23F47B6323F00F031B0402221B0C1D
:10D1800083830284838B0A8830B44D888C88898994
:10D190009BB22B4343F4006322F40072234392B208
:10D1A0000B43002A9BB214BF00224FF4807213433A
:10D1B000838330BC704700BF808980B2704700BF56
:10D1C00081817047038829B923F400531B041B0C89
:10D1D000038070479BB243F400530380704700BF45
:10D1E00003889BB243F4805303807047012914BF26
:10D1F000008B808A80B27047008A80B2704700BF7F
:10D2000083889BB21AB923EA0101818070471943D0
:10D21000818070470123090903FA01F1838889B2EB
:10D220009BB21AB923EA01018180704719438180BA
:10D23000704700BF038919420CBF002001207047CE
:10D24000C94389B20181704710B48488008901F014
:10D250000F03012280B202FA03F31840A4B205D0F2
:10D2600009098A4014420CBF002001205DF8044BDC
:10D27000704700BF01F00F01012303FA01F1C94318
:10D2800089B20181704700BF10B4374A0468002397
:10D2900024F0010421219042046003604360836014
:10D2A000C360036141614DD0304B984235D0304B63
:10D2B000984239D02F4B98423DD02F4B984247D0BF
:10D2C0002E4B984248D02E4B98421DD02D4B984261
:10D2D0001ED02D4B984243D02C4B98421DD02C4B46
:10D2E000984221D02B4B984225D02B4B98422FD0DF
:10D2F0002A4B984230D02A4B984205D0294B98426D
:10D3000006D05DF8044B7047274A43F8942CF8E7A1
:10D310004FF03D5243F8AC2CF3E74FF4746243F8FE
:10D32000202C5DF8044B70474FF4741243F8382CEE
:10D330005DF8044B70474FF0746243F8502C5DF871
:10D34000044B7047194B5DF8044B3D229A607047BF
:10D35000174A43F8642CD4E7164A43F87C2CD0E7EC
:10D360003D2243F8082CCCE71060024028600240C0
:10D370004060024058600240706002408860024095
:10D38000A0600240B860024010640240286402407D
:10D390004064024058640240706402408864024065
:10D3A000A0640240B864024000003D2000600240DA
:10D3B0003D000020400F0020CA680B68D0F800C074
:10D3C0002DE9F0074F698E69CD690C6AD1F8349068
:10D3D000D1F8388042EA030A4AEA07073E434B6A1B
:10D3E0004F6835432C4344EA03028B6A0D4ECC6AE6
:10D3F0000D691A4342EA090949EA08080CEA0606D7
:10D4000048EA06060B6B896806604269234322F0EE
:10D4100007021343436145608760C160BDE8F007C0
:10D42000704700BF3F801CF00023036043608360AF
:10D43000C360036143618361C361036243628362CA
:10D44000C362036343638363704700BF036819B912
:10D4500023F001030360704743F00103036070474A
:10D46000036819B923F400430360704743F4004391
:10D4700003607047036819B923F020030360704705
:10D4800043F020030360704741607047406880B2FA
:10D49000704700BF036822B923F4002303600161D1
:10D4A000704743F40023036001617047036819B9B2
:10D4B00023F480230360704743F4802303607047A4
:10D4C0000AB9C16070470161704700BF0068C0F3CE
:10D4D000C0407047006800F001007047406900F0EC
:10D4E000380070470B4B0C4A10B40C4CA0428CBF58
:10D4F000104618468B004CBF436803685DF8044B28
:10D5000021F0F02121F0821119420CBF00200120EE
:10D51000704700BF00600240006402400F64024098
:10D5200010B4094A094C0A4BA0428CBF1046184659
:10D5300011F0005F21F0F02121F0821114BFC160D1
:10D5400081605DF8044B7047006402400F64024044
:10D55000006002400B060CD54369AAB143F080037A
:10D56000802943610FD0036801F01E011943016057
:10D570007047802907D0002AF5D1036801F01E0109
:10D5800023EA01010160704723F080038029436191
:10D59000F3D1704770B4114A114D124C21F0F023B1
:10D5A00023F0C316A84288BF224696B1046804F04F
:10D5B0001E0404EAD12489004CBF5268126823F08B
:10D5C000821313EA020002D0201C18BF012070BC95
:10D5D0007047446904F08004EDE700BF006002403A
:10D5E0000F6402400064024010B4094A094C0A4B1F
:10D5F000A0428CBF1046184611F0005F21F0F021C8
:10D6000021F0821114BFC16081605DF8044B704746
:10D61000006402400F6402400060024008B54FF40D
:10D6200080700121FFF7D4FB4FF480700021BDE82A
:10D630000840FFF7CDBB00BF4268D1F80CC0134BC8
:10D640002DE9F00122F040720C6891F804800F6916
:10D650008E684D7922F48072224342EA08224260A9
:10D6600084684CEA070232432340134343EA4503EC
:10D6700083600B7DC26A013BDBB222F4700242EA96
:10D680000353C362BDE8F001704700BFFDF7FFC060
:10D690000023012202750360037143718360C3603C
:10D6A0000361704770B490E84200064A8568C46818
:10D6B000054B506831432943214303400B435360DA
:10D6C00070BC704700230140E030FCFF0023036082
:10D6D00043608360C3607047836819B923F0010316
:10D6E0008360704743F0010383607047436823F40D
:10D6F000400323F400731943416070474162826222
:10D70000704700BF436823F01F031943416070470F
:10D71000054B5A6818B922F400025A60704742F467
:10D7200000025A60704700BF00230140054B5A6851
:10D7300018B922F480025A60704742F480025A609D
:10D74000704700BF00230140092970B41ED9A1F120
:10D750000A0404EB4404C5680726A64003FA04F44F
:10D7600025EA06032343062AC3601CD90C2A28D9BC
:10D770000D3AC46A02EB82021F23934024EA03039A
:10D7800001FA02F21A43C26270BC704701EB410415
:10D7900005690726A64003FA04F425EA0603234395
:10D7A000062A0361E2D8013A446B02EB82021F238E
:10D7B000934024EA030301FA02F21A43426370BC65
:10D7C0007047073A046B02EB82021F23934024EA5E
:10D7D000030301FA02F21A43026370BC704700BFF0
:10D7E000836843F080438360704700BF8068C0F364
:10D7F00080507047836819B923F480638360704751
:10D8000043F4806383607047836819B923F002038F
:10D810008360704743F002038360704743680139B7
:10D8200023F4604343EA413141607047436819B9CA
:10D8300023F400634360704743F400634360704720
:10D84000C06C80B2704700BF014B1868704700BFC2
:10D8500008230140836819B923F4807383607047FB
:10D8600043F4807383607047836819B923F40073AD
:10D870008360704743F4007383607047054B5A68B8
:10D8800018B922F400525A60704742F400525A60AC
:10D89000704700BF00230140092970B41BD801EB79
:10D8A000410405690726A64003FA04F425EA0603A5
:10D8B00023430361836B0232C3F30154121BD2B2C0
:10D8C00002EB82021F24944023EA040391400B439D
:10D8D000836370BC7047A1F10A0404EB4404C5687B
:10D8E0000726A64003FA04F425EA06032343C3608F
:10D8F000E0E700BF836B013923F4401343EA015191
:10D900008163704782B0002301930190019B194409
:10D910000191019B1A6002B0704700BF836823F435
:10D920007023194381607047836823F440131943BF
:10D9300081607047836843F480038360704700BF51
:10D940008068C0F380507047436819B923F480633E
:10D950004360704743F4806343607047436819B97C
:10D9600023F480534360704743F48053436070470F
:10D9700082B0002301930190019B28331944019147
:10D98000019B186880B202B0704700BF0123C9B282
:10D9900003FA01F143681AB923EA010141607047B3
:10D9A00019434160704700BF036819420CBF002053
:10D9B00001207047C9430160704700BF4368006899
:10D9C00010EA112007D0C9B2012202FA01F119426E
:10D9D0000CBF0020012070476FEA112101607047E1
:10D9E00040F0BF60024B40F40030D860704700BF89
:10D9F00000ED00E0C378F0B463B90378194A59091F
:10DA0000203103F01F03012000FA03F342F8213014
:10DA1000F0BC7047144B4778DA6885780378114971
:10DA2000D243C2F30222C2F104040F26E4B207FA81
:10DA300004F446FA02F2E4B22A40224303F16043BE
:10DA400003F561431201D2B283F800230378012069
:10DA500003F01F025B0900FA02F241F82320F0BC38
:10DA6000704700BF00E100E000ED00E021F0604100
:10DA700021F07F01014B08439860704700ED00E002
:10DA8000044B1A6919B922EA000018617047104363
:10DA90001861704700ED00E0044B1A6804280CBFC1
:10DAA00042F0040222F004021A60704710E000E025
:10DAB00008B5604B984235D0B0F1804F3CD05E4BFA
:10DAC000984243D05D4B98424AD05D4B984251D02A
:10DAD0005C4B984258D05C4B98425FD05B4B98426D
