:020000040800F2
:1080000000000220C94F010895EE0008B54F010895
:10801000A9EE0008ADEE0008B1EE00080000000077
:10802000000000000000000000000000B5EE0008A5
:10803000B9EE000800000000BDEE00081550010870
:108040001550010815500108155001081550010878
:108050001550010815500108155001081550010868
:108060001550010815500108155001081550010858
:10807000155001081550010811D9000815500108C4
:108080001550010815500108155001081550010838
:108090001550010815500108155001081550010828
:1080A0001550010815500108155001081550010818
:1080B0001550010815500108E5BD000815500108CC
:1080C00015500108155001081550010815500108F8
:1080D00015500108155001081550010815500108E8
:1080E00015500108155001081550010815500108D8
:1080F00015500108155001081550010815500108C8
:1081000015500108155001081550010815500108B7
:1081100015500108155001081550010815500108A7
:108120001550010815500108155001081550010897
:108130001550010815500108155001081550010887
:108140001550010815500108155001081550010877
:108150001550010815500108155001081550010867
:108160001550010815500108155001081550010857
:108170001550010815500108155001081550010847
:108180001550010815500108000000000000000013
:1081900040F0BF60024B40F40030D860704700BF31
:1081A00000ED00E0C378F0B463B90378194A5909C7
:1081B000203103F01F03012000FA03F342F82130BD
:1081C000F0BC7047144B4778DA688578037811491A
:1081D000D243C2F30222C2F104040F26E4B207FA2A
:1081E00004F446FA02F2E4B22A40224303F1604367
:1081F00003F561431201D2B283F800230378012012
:1082000003F01F025B0900FA02F241F82320F0BCE0
:10821000704700BF00E100E000ED00E021F06041A8
:1082200021F07F01014B08439860704700ED00E0AA
:10823000044B1A6919B922EA00001861704710430B
:108240001861704700ED00E0044B1A6804280CBF69
:1082500042F0040222F004021A60704710E000E0CD
:1082600008B54FF48070012101F040FD4FF480709B
:108270000021BDE8084001F039BD00BF4268D1F8D7
:108280000CC0134B2DE9F00122F040720C6891F8FC
:1082900004800F698E684D7922F48072224342EA8D
:1082A0000822426084684CEA0702324323401343A9
:1082B00043EA450383600B7DC26A013BDBB222F4D3
:1082C000700242EA0353C362BDE8F001704700BF89
:1082D000FDF7FFC0002301220275036003714371A3
:1082E0008360C3600361704770B490E84200064A3F
:1082F0008568C468054B50683143294321430340D6
:108300000B43536070BC704700230140E030FCFF1A
:108310000023036043608360C3607047836819B9BA
:1083200023F001038360704743F0010383607047CB
:10833000436823F4400323F40073194341607047FA
:1083400041628262704700BF436823F01F031943F4
:1083500041607047054B5A6818B922F400025A6010
:10836000704742F400025A60704700BF002301408A
:10837000054B5A6818B922F480025A60704742F4DB
:1083800080025A60704700BF00230140092970B481
:108390001ED9A1F10A0404EB4404C5680726A640CF
:1083A00003FA04F425EA06032343062AC3601CD912
:1083B0000C2A28D90D3AC46A02EB82021F2393408B
:1083C00024EA030301FA02F21A43C26270BC704746
:1083D00001EB410405690726A64003FA04F425EAE7
:1083E00006032343062A0361E2D8013A446B02EBF9
:1083F00082021F23934024EA030301FA02F21A4384
:10840000426370BC7047073A046B02EB82021F2381
:10841000934024EA030301FA02F21A43026370BC98
:10842000704700BF836843F080438360704700BF9C
:108430008068C0F380507047836819B923F4806363
:108440008360704743F4806383607047836819B921
:1084500023F002038360704743F002038360704798
:108460004368013923F4604343EA41314160704776
:10847000436819B923F400634360704743F4006311
:1084800043607047C06C80B2704700BF014B1868F2
:10849000704700BF08230140836819B923F4807333
:1084A0008360704743F4807383607047836819B9B1
:1084B00023F400738360704743F400738360704754
:1084C000054B5A6818B922F400525A60704742F4BA
:1084D00000525A60704700BF00230140092970B460
:1084E0001BD801EB410405690726A64003FA04F4F2
:1084F00025EA060323430361836B0232C3F301546D
:10850000121BD2B202EB82021F24944023EA04031E
:1085100091400B43836370BC7047A1F10A0404EBE4
:108520004404C5680726A64003FA04F425EA0603B6
:108530002343C360E0E700BF836B013923F440139A
:1085400043EA01518163704782B000230193019097
:10855000019B19440191019B1A6002B0704700BF52
:10856000836823F47023194381607047836823F480
:108570004013194381607047836843F4800383602C
:10858000704700BF8068C0F380507047436819B9D6
:1085900023F480634360704743F480634360704713
:1085A000436819B923F480534360704743F4805300
:1085B0004360704782B0002301930190019B2833F0
:1085C00019440191019B186880B202B0704700BF46
:1085D0000123C9B203FA01F143681AB923EA010180
:1085E0004160704719434160704700BF03681942FA
:1085F0000CBF002001207047C9430160704700BFD5
:108600004368006810EA112007D0C9B2012202FABB
:1086100001F119420CBF0020012070476FEA1121BF
:108620000160704708B54FF00050012101F052FB86
:108630004FF000500021BDE8084001F04BBB00BFE7
:1086400070B491E860008C68084BC9681A683543BB
:108650002C4340F6FE768640214322EA060201FAC8
:1086600000F002431A6070BC704700BF0074004005
:108670000023036043608360C3607047084B39B9CF
:108680001A68012101FA00F022EA00001860704720
:108690001A68012101FA00F010431860704700BF0A
:1086A00000740040084B000939B95A68012101FAE9
:1086B00000F022EA0000586070475A68012101FA70
:1086C00000F010435860704700740040054B5A6832
:1086D00018B922F003025A60704742F003025A6050
:1086E000704700BF00740040064B2AB91A688140E9
:1086F00022EA0101196070471A688140114319602C
:10870000704700BF0074004082B00022054B019208
:108710000193019B083318440190019B196002B03A
:10872000704700BF0074004082B00022054B0192E8
:108730000193019B143318440190019B196002B00E
:10874000704700BF007400400828044B0CBF42EA89
:10875000012142EA0141C150704700BF207400402E
:1087600082B00022064B01920193019B2C3303EB54
:1087700090000190019B186880B202B0704700BF62
:1087800000740040094B41B91A684FF4805101FA56
:1087900000F022EA0000186070471A684FF4805118
:1087A00001FA00F010431860704700BF00740040E9
:1087B000064B2AB91A68814022EA01011960704704
:1087C0001A68814011431960704700BF007400406F
:1087D000034B5B6B814019420CBF002001207047A6
:1087E00000740040014B81405963704700740040A1
:1087F000054B1A685B6B814011EA030003D01142FC
:108800000CBF00200120704700740040014B8140E4
:10881000596370470074004010B4374A046800235D
:1088200024F00104212190420460036043608360CE
:10883000C360036141614DD0304B984235D0304B1D
:10884000984239D02F4B98423DD02F4B984247D079
:108850002E4B984248D02E4B98421DD02D4B98421B
:108860001ED02D4B984243D02C4B98421DD02C4B00
:10887000984221D02B4B984225D02B4B98422FD099
:108880002A4B984230D02A4B984205D0294B984227
:1088900006D05DF8044B7047274A43F8942CF8E75C
:1088A0004FF03D5243F8AC2CF3E74FF4746243F8B9
:1088B000202C5DF8044B70474FF4741243F8382CA9
:1088C0005DF8044B70474FF0746243F8502C5DF82C
:1088D000044B7047194B5DF8044B3D229A6070477A
:1088E000174A43F8642CD4E7164A43F87C2CD0E7A7
:1088F0003D2243F8082CCCE710600240286002407B
:10890000406002405860024070600240886002404F
:10891000A0600240B8600240106402402864024037
:10892000406402405864024070640240886402401F
:10893000A0640240B864024000003D200060024094
:108940003D000020400F0020CA680B68D0F800C02E
:108950002DE9F0074F698E69CD690C6AD1F8349022
:10896000D1F8388042EA030A4AEA07073E434B6AD5
:108970004F6835432C4344EA03028B6A0D4ECC6AA0
:108980000D691A4342EA090949EA08080CEA060691
:1089900048EA06060B6B896806604269234322F0A9
:1089A00007021343436145608760C160BDE8F0077B
:1089B000704700BF3F801CF000230360436083606A
:1089C000C360036143618361C36103624362836285
:1089D000C362036343638363704700BF036819B9CD
:1089E00023F001030360704743F001030360704705
:1089F000036819B923F400430360704743F400434C
:108A000003607047036819B923F0200303607047BF
:108A100043F020030360704741607047406880B2B4
:108A2000704700BF036822B923F40023036001618B
:108A3000704743F40023036001617047036819B96C
:108A400023F480230360704743F48023036070475E
:108A50000AB9C16070470161704700BF0068C0F388
:108A6000C0407047006800F001007047406900F0A6
:108A7000380070470B4B0C4A10B40C4CA0428CBF12
:108A8000104618468B004CBF436803685DF8044BE2
:108A900021F0F02121F0821119420CBF00200120A9
:108AA000704700BF00600240006402400F64024053
:108AB00010B4094A094C0A4BA0428CBF1046184614
:108AC00011F0005F21F0F02121F0821114BFC1608C
:108AD00081605DF8044B7047006402400F640240FF
:108AE000006002400B060CD54369AAB143F0800335
:108AF000802943610FD0036801F01E011943016012
:108B00007047802907D0002AF5D1036801F01E01C3
:108B100023EA01010160704723F08003802943614B
:108B2000F3D1704770B4114A114D124C21F0F0236B
:108B300023F0C316A84288BF224696B1046804F009
:108B40001E0404EAD12489004CBF5268126823F045
:108B5000821313EA020002D0201C18BF012070BC4F
:108B60007047446904F08004EDE700BF00600240F4
:108B70000F6402400064024010B4094A094C0A4BD9
:108B8000A0428CBF1046184611F0005F21F0F02182
:108B900021F0821114BFC16081605DF8044B704701
:108BA000006402400F64024000600240014BC0B20A
:108BB00018707047003C0240054B1A6818B922F43F
:108BC00080721A60704742F480721A60704700BF6A
:108BD000003C0240054B1A6818B922F400721A6072
:108BE000704742F400721A60704700BF003C0240B8
:108BF000054B1A6818B922F480621A60704742F473
:108C000080621A60704700BF003C0240024B1A6845
:108C100042F400621A607047003C0240024B1A683E
:108C200042F480521A607047003C0240044B1A69BB
:108C3000002A03DA0349044A59605A60704700BFAA
:108C4000003C024023016745AB89EFCD024B1A6916
:108C500042F000421A617047003C0240044B5A69DE
:108C6000D20703D50349044A99609A60704700BF50
:108C7000003C02403B2A19087F6E5D4C024B5A694A
:108C800042F001025A617047003C0240034B1A78DF
:108C900002F07F0210431870704700BF173C02407B
:108CA000044B1A7802F0EF021A701A781043187009
:108CB000704700BF143C0240044B1A7802F0F302E4
:108CC0001A701A7810431870704700BF143C0240A5
:108CD000024B5869C0F34710704700BF003C024088
:108CE000014B188880B27047163C0240014B18882F
:108CF00080B270471A3C0240014B188880B270471E
:108D0000163C0240014B188880B270471A3C024062
:108D1000024B1878AA3818BF01207047153C024052
:108D2000024B187800F00C00704700BF143C024062
:108D3000044B1A6919B922EA000018617047104300
:108D400018617047003C0240034BDB6818420CBFBF
:108D500000200120704700BF003C0240014BD8605A
:108D6000704700BF003C02400E4BDA68D00309D4C4
:108D7000DA68D10601D506207047DA68D20503D536
:108D80000220704701207047DA6812F0EF0F01D01F
:108D900007207047DB6813F0020F0CBF0920082082
:108DA000704700BF003C024082B00922284B8DF87A
:108DB0000720DA68D00334D4DA68D10621D5062337
:108DC0008DF807309DF80730012B15D1204A09E0B6
:108DD000D368D9061AD506238DF807309DF80730D9
:108DE000012B09D1D368D803F2D501238DF80730C0
:108DF0009DF80730012BF5D09DF80700C0B202B0F6
:108E00007047DA68D20515D50223D9E7D368DB05A8
:108E100001D50223E0E7D36813F0EF0F03D0072357
:108E2000DAE70123CCE7D36813F0020F0CBF092364
:108E30000823D1E7DA6812F0EF0F01D00723BFE76C
:108E4000DB6813F0020F0CBF09230823B8E700BF4B
:108E5000003C024070B5054659B301292FD00229C4
:108E600014BF4FF440764FF40076FFF79DFF0928BA
:108E700024D1144C236923F44073236121690E43E8
:108E80002661236923F0F8032361236943F0020379
:108E90001D432561236943F480332361FFF784FF79
:108EA000236923F002032361236923F0F80323617C
:108EB00070BD0E46FFF778FF0928DAD070BD4FF479
:108EC0008076F7E7003C024038B50446FFF76CFFB8
:108ED0003CB1012C08D0022C14BF4FF440744FF465
:108EE0000074092804D038BD09284FF48074FAD1E1
:108EF0000D4D2B6923F440732B612B691C432C61AE
:108F00002B6943F4004343F004032B612B6943F4C2
:108F100080332B61FFF748FF2B6923F4004323F0D4
:108F200004032B6138BD00BF003C024038B5044645
:108F3000FFF73AFF3CB1012C08D0022C14BF4FF4CC
:108F400040744FF40074092804D038BD09284FF448
:108F50008074FAD10B4D2B6923F440732B612B697C
:108F60001C432C612B6943F004032B612B6943F4F0
:108F700080332B61FFF718FF2B6923F004032B616B
:108F800038BD00BF003C024038B50446FFF70CFF77
:108F90003CB1012C08D0022C14BF4FF440744FF4A4
:108FA0000074092804D038BD09284FF48074FAD120
:108FB0000B4D2B6923F440732B612B691C432C61EF
:108FC0002B6943F400432B612B6943F480332B61FD
:108FD000FFF7EAFE2B6923F400432B6138BD00BF85
:108FE000003C0240F8B5074614461D46FFF7DCFE7C
:108FF000092800D0F8BD0B4E336923F44073336168
:10900000336943F440733361336943F001033361DF
:10901000C7E90045FFF7C8FE336923F00103336158
:10902000F8BD00BF003C024070B505460E46FFF794
:10903000BBFE092800D070BD0A4C236923F440739D
:109040002361236943F400732361236943F001031F
:1090500023612E60FFF7A8FE236923F0010323613B
:1090600070BD00BF003C024070B505460E46FFF7DC
:109070009BFE092800D070BD0A4C236923F440737D
:109080002361236943F480732361236943F001035F
:1090900023612E80FFF788FE236923F001032361FB
:1090A00070BD00BF003C024070B505460E46FFF79C
:1090B0007BFE092800D070BD094C236923F440735E
:1090C000236123692361236943F0010323612E7027
:1090D000FFF76AFE236923F00103236170BD00BF1F
:1090E000003C024038B505460C46FFF75DFE0928F6
:1090F00000D038BD054B1A881CB91543ADB21D8090
:1091000038BD92B222EA05051D8038BD163C0240EA
:1091100038B505460C46FFF747FE092800D038BD94
:10912000054B1A881CB91543ADB21D8038BD92B2EB
:1091300022EA05051D8038BD1A3C024038B50546B7
:109140000C46FFF731FE092800D038BD054B1A88C0
:1091500024B992B222EA05051D8038BD1543ADB28F
:109160001D8038BD163C024038B505460C46FFF759
:109170001BFE092800D038BD054B1A8824B992B2CD
:1091800022EA05051D8038BD1543ADB21D8038BDEE
:109190001A3C024010B50446FFF706FE092804BF3A
:1091A000014B1C7010BD00BF153C024070B5064657
:1091B0000C461546FFF7F8FD092807D1044B1A782D
:1091C00002F01F02164335432C431C7070BD00BFD4
:1091D000143C0240034B1A7842F002021A70FFF767
:1091E000E3BD00BF143C024008B53C4B984224D07C
:1091F0003B4B98422BD03B4B984232D03A4B984253
:1092000039D03A4B984240D0394B984247D0394BED
:1092100098424ED0384B984255D0384B984200D0A7
:1092200008BD4FF48070012100F030FD4FF48070D4
:109230000021BDE8084000F029BD0120014600F0F2
:1092400025FD01200021BDE8084000F01FBD0220DF
:10925000012100F01BFD02200021BDE8084000F0C4
:1092600015BD0420012100F011FD04200021BDE8FE
:10927000084000F00BBD0820012100F007FD082088
:109280000021BDE8084000F001BD1020012100F0E0
:10929000FDFC10200021BDE8084000F0F7BC2020B4
:1092A000012100F0F3FC20200021BDE8084000F07F
:1092B000EDBC4020012100F0E9FC40200021BDE888
:1092C000084000F0E3BC8020012100F0DFFC80209A
:1092D0000021BDE8084000F0D9BC00BF00000240FA
:1092E0000004024000080240000C0240001002404E
:1092F0000014024000180240001C024000200240FE
:1093000000222DE9F00713460E6801274FF00308ED
:1093100004E00133102B02F102022ED007FA03F40D
:1093200004EA0605A542F4D1D0F8009091F804C0F3
:1093300008FA02F4E44304EA0909C0F80090D0F8FE
:1093400000900CFA02FA0CF1FF3C5FFA8CFC4AEA3E
:109350000909BCF1010FC0F8009011D9C56891F856
:1093600007C02C40C460C5680CFA02F401332C43DA
:10937000102BC46002F10202D0D1BDE8F0077047A3
:10938000D0F808A091F8059091F806C004EA0A0AFE
:10939000C0F808A0D0F808A009FA02F949EA0A09B9
:1093A000C0F80890D0F8049029EA050545604568A2
:1093B0000CFA03FC1FFA8CFC4CEA05054560CDE76E
:1093C00000234FF6FF720260037143718371C37112
:1093D000704700BF82B04FF480330193019B0B4371
:1093E0000193019BC361C161019BC361C369019387
:1093F000C369019302B07047036919420CBF002092
:1094000001207047006980B2704700BF436919426C
:109410000CBF002001207047406980B2704700BF38
:1094200001837047418370470AB9418370470183C4
:10943000704700BF416170474369594041617047BF
:10944000CB0800EB830001F0070110B48900046A27
:109450000F238B4024EA03030362036A5DF8044B85
:109460008A4013430362704708B5174B984212D0E5
:10947000164B98421BD0164B984200D008BD4FF4B3
:109480000000012100F026FC4FF400000021BDE89F
:10949000084000F01FBC4FF40010012100F01AFC3E
:1094A0004FF400100021BDE8084000F013BC4FF459
:1094B0008000012100F00EFC4FF480000021BDE887
:1094C000084000F007BC00BF0054004000580040B6
:1094D000005C0040F0B5044685B068460D46A6889D
:1094E00000F0E2FA029930482A68DFF8C4C0A0FB15
:1094F000013026F03F063604800C360C87B23E431E
:10950000A680238823F001031B041B0C62452380E3
:1095100023D85300B1FBF3F39BB2032B07F10107F0
:1095200098BF04232784A38323886E89A888298968
:10953000AA899BB243F001032380238823F481632B
:1095400023F002031B0430431B0C03430A439BB26A
:1095500092B22380228105B0F0BDEE884BF6FF73F6
:109560009E421AD002EB820202EB8202B1FBF2F3BE
:109570009BB243F48043C3F30B020AB943F00103E7
:109580004FF49671094A01FB00F082FB001080093C
:10959000013043F400432084C5E702EB4202B1FBF3
:1095A000F2F39BB2E7E700BF83DE1B43D34D6210AB
:1095B000A0860100002310B44BF6FF7141F28834FD
:1095C0004FF480420460C1808281838003814381A3
:1095D0005DF8044B704700BF038829B923F00103ED
:1095E0001B041B0C038070479BB243F001030380F4
:1095F000704700BF038829B923F480731B041B0C38
:10960000038070479BB243F480730380704700BFB0
:10961000038829B923F400731B041B0C03807047D3
:109620009BB243F400730380704700BF1AB901F086
:10963000FE010182704741F001010182704700BFC5
:10964000038829B923F480631B041B0C0380704733
:109650009BB243F480630380704700BF83899BB251
:1096600001F0FE0123F0FE0319438181704700BF22
:10967000838929B923F001031B041B0C83817047E4
:109680009BB243F001038381704700BF038829B96F
:1096900023F040031B041B0C038070479BB243F074
:1096A00040030380704700BF038819B9C3F30E035A
:1096B000038070476FEA43436FEA53439BB20380D2
:1096C000704700BF038829B123F080031B041B0CE3
:1096D000038070479BB243F080030380704700BF54
:1096E000B1F5804F838B05D023F480431B041B0C02
:1096F000838370479BB243F480438383704700BFEA
:10970000B1F5006F038805D023F400631B041B0C24
:10971000038070479BB243F400630380704700BF2F
:10972000B1F5005F038805D023F400531B041B0C24
:10973000038070479BB243F400530380704700BF1F
:10974000038829B923F010031B041B0C0380704706
:109750009BB243F010030380704700BF0182704743
:10976000008AC0B2704700BF038829B923F4805330
:109770001B041B0C038070479BB243F4805303808F
:10978000704700BFB1F5006F038805D023F4006374
:109790001B041B0C038070479BB243F400630380DF
:1097A000704700BF038829B923F020031B041B0C5A
:1097B000038070479BB243F020030380704700BFD3
:1097C000008BC0F307207047838829B923F4006316
:1097D0001B041B0C838070479BB243F4006383809F
:1097E000704700BF838829B923F480531B041B0CE6
:1097F000838070479BB243F480538380704700BFDF
:1098000082B0002301930190019B19440191019BB7
:10981000188880B202B0704783889BB21AB923EAD5
:10982000010181807047194381807047828A038BD0
:1098300090B240EA034021F07F4318400B1A58428F
:1098400058417047828A038B90B240EA034020F06F
:109850007F40704782B000230A0F0093019301906C
:109860000092009B21F07F4153B1019B143301937F
:10987000019B1B6819420CBF0020012002B07047F9
:10988000019B1833090C0193F2E700BFC94389B269
:10989000818270478388808A80B208409BB206D05C
:1098A00001F0E06113EA11410CBF00200120704774
:1098B000C94389B2818270470F4B10481968002252
:1098C00041F0010130B419609A6019680C4D0D4CDB
:1098D00021F0A85121F4102119605D60C3F8844083
:1098E000C3F88800196821F48021196030BCDA605F
:1098F000C3F88C20704700BF0038024000300024BD
:109900001030002400300020024B00221A70187022
:10991000704700BF0238024082B000230B4A019317
:1099200013689B030CD4019B01330193019BB3F596
:10993000A06FF5D1054B1868C0F3404002B07047E6
:10994000019B01330193019BF4E700BF0038024003
:10995000034B1A6822F0F80242EAC0001860704710
:1099600000380240014B1860704700BF00004742BA
:10997000064B002201281A701A7005D0042802D163
:1099800005221A707047704718707047703802408F
:10999000014B1860704700BF800E474230B4029CF4
:1099A000064D40EA04605B080143013B41EA821234
:1099B00042EA03436B6030BC704700BF003802408E
:1099C000014B1860704700BF60004742120742EA2F
:1099D0000161034B41EA8010C3F88400704700BF67
:1099E00000380240014B1860704700BF68004742D2
:1099F000120742EA0161034B41EA8010C3F8880074
:109A0000704700BF00380240014B1860704700BF2C
:109A100070004742014B1860704700BF4C0047423E
:109A2000034B9A6822F0EC62114308439860704738
:109A300000380240034B9A6822F0784211430843F1
:109A40009860704700380240034B9A6822F0030286
:109A500010439860704700BF00380240024B98687E
:109A600000F00C00704700BF00380240034B9A68BA
:109A700022F0F00210439860704700BF00380240A7
:109A8000034B9A6822F4E05210439860704700BF7D
:109A900000380240034B9A6822F4604242EAC00058
:109AA00098607047003802401F4A936803F00C0327
:109AB000042B10B41BD0082B1CD01C4B03601A497C
:109AC0001B4A8C68C4F30314145DE34043608C6844
:109AD000C4F38224145D23FA04F4846089685DF879
:109AE000044BC1F34231525CD340C3607047114B09
:109AF0000360E4E754685168526863024CBF0D4B41
:109B00000A4B01F03F01C2F38812B3FBF1F303FBF0
:109B100002F3054A5268C2F3014201325200B3FB1C
:109B2000F2F30360CBE700BF003802400024F400EA
:109B30000000002000127A0000F44073B3F5407F6B
:109B400009D1084A916820F0704321F4F81123F4F8
:109B500040730B439360034B1A6FC0F30B00104329
:109B60001867704700380240014B1860704700BF0B
:109B70003C0E4742014B1860704700BF400E474201
:109B8000014B1860704700BF5C014742044BD3F89B
:109B90008C20013822F01F020243C3F88C2070474A
:109BA00000380240054BD3F88C20013822F4F852DB
:109BB00042EA0022C3F88C20704700BF0038024000
:109BC000044BD3F88C2022F440121043C3F88C00CD
:109BD000704700BF00380240044BD3F88C2022F4B9
:109BE00040021043C3F88C00704700BF00380240A9
:109BF000044BD3F88C2022F440321043C3F88C007D
:109C0000704700BF00380240014B1860704700BF2A
:109C1000E0114742044B1A6B19B922EA000018639D
:109C2000704710431863704700380240044B5A6B6A
:109C300019B922EA0000586370471043586370470F
:109C400000380240044B9A6B19B922EA000098636D
:109C5000704710439863704700380240044B1A6CF9
:109C600019B922EA0000186470471043186470475D
:109C700000380240044B5A6C19B922EA00005864BB
:109C8000704710435864704700380240044B1A690B
:109C900019B922EA00001861704710431861704733
:109CA00000380240044B5A6919B922EA0000586191
:109CB000704710435861704700380240044B9A695E
:109CC00019B922EA00009861704710439861704703
:109CD00000380240044B1A6A19B922EA00001862DF
:109CE000704710431862704700380240044B5A6AAC
:109CF00019B922EA00005862704710435862704751
:109D000000380240044B1A6D19B922EA00001865A8
:109D1000704710431865704700380240044B5A6D75
:109D200019B922EA0000586570471043586570471A
:109D300000380240044B9A6D19B922EA0000986578
:109D4000704710439865704700380240044B1A6E04
:109D500019B922EA00001866704710431866704768
:109D600000380240044B5A6E19B922EA00005866C6
:109D7000704710435866704700380240044B1A7809
:109D800019B922EA00001870704710431870704724
:109D90000D3802404309012B0BD0022B094B0CBF9D
:109DA0001B6F5B6F00F01F0023FA00F000F0010052
:109DB0007047044B1B6800F01F0023FA00F000F00E
:109DC0000100704700380240024B5A6F42F0807227
:109DD0005A67704700380240034BDB6818420CBFDB
:109DE00000200120704700BF00380240014B18706E
:109DF000704700BF0E38024008B54FF400600121E3
:109E0000FFF774FF4FF400600021BDE80840FFF742
:109E10006DBF00BFF0B40B4A8768D0F804C0C668B5
:109E200005680469017D53684CEA07003043284304
:109E300023F4FD43204323F07F0303430B4353608C
:109E4000F0BC7047002C01400023037503604360A1
:109E50008360C36003617047014B1860704700BFA7
:109E6000A0802542014B1860704700BF002C0140C4
:109E7000024B186800F00300704700BF002C01403F
:109E8000094B026830B49A6085684168C468DA6832
:109E900000692943214322F4FF62014322F00702B3
:109EA0000A43DA6030BC7047002C01400023036095
:109EB00043608360C3600361704700BF014B186952
:109EC000C0B27047002C0140044B82B00344002212
:109ED00001920193019B186802B07047142C014055
:109EE000094B026830B45A6242689A62C568826857
:109EF0000469D96A40692A432243024321F0F701E9
:109F00000A43DA6230BC7047002C014000234FF056
:109F1000FF3280E80C008360C360036143617047D7
:109F2000014B186B704700BF002C0140014BD3F868
:109F300080007047002C0140014BC3F8800070473F
:109F4000002C0140014B986C704700BF002C014071
:109F5000014B1860704700BFA0852542014B186077
:109F6000704700BFA4852542014B1860704700BFB1
:109F7000A8852542014B1860704700BFAC8525427B
:109F8000014B1860704700BFAC812542014B18603F
:109F9000704700BFB081254200F00100024B80F005
:109FA00001001860704700BFB4812542014B186062
:109FB000704700BFB8812542014B1860704700BF51
:109FC0008C852542044BDA6B19B922EA0000D8636C
:109FD00070471043D8637047002C0140034B5B6B04
:109FE00018420CBF00200120704700BF002C014028
:109FF000014B9863704700BF002C0140034B5B6B23
:10A0000018420CBF00200120704700BF002C014007
:10A01000014B9863704700BF002C014008B5174BF7
:10A02000984212D0164B98421BD0164B984200D043
:10A0300008BD4FF400400121FFF74CFE4FF40040F3
:10A040000021BDE80840FFF745BE4FF480500121D4
:10A05000FFF74CFE4FF480500021BDE80840FFF7A9
:10A0600045BE4FF480400121FFF734FE4FF480409D
:10A070000021BDE80840FFF72DBE00BF00300140C1
:10A0800000380040003C00402DE9F007B1F802A084
:10A09000B1F80090B1F804800F894E898D89CC8980
:10A0A000B1F806C00A8A03884AEA090141EA0801B0
:10A0B00041EA0C01394331432943214303F441531D
:10A0C0000B439BB20380838B23F400631B041B0CA4
:10A0D0008383BDE8F0070282704700BF838B8A68E4
:10A0E00023F47B6323F00F031B042DE9F0071B0C03
:10A0F000022483830484B0F81CC0A2421FFA8CFCA3
:10A1000050D02E4B8C889D68002C0CBF4FF020093E
:10A110004FF040092D0240D4284B294FD3F88450EA
:10A12000D3F88460D3F804A0CB880AF03F0AC5F3C3
:10A130008818B7FBFAF7C6F3027608FB07F7B3F502
:10A14000007FB7FBF6F630D0B6FBF9F505EB8505D9
:10A150006D00B5FBF2F2053292B21A4DA5FB026218
:10A16000D2085508AE1EB6B202F00102FD2E94BF11
:10A1700045EA022202220F884E888D894CEA0701A7
:10A1800041F4006131432943134389B20C439BB22C
:10A1900003848483BDE8F00770479D6825F40005BB
:10A1A0009D60B9E78C88CB88E5E7360A06EB860622
:10A1B0007600B6FBF2F2053292B2CEE700380240EA
:10A1C00000127A00CDCCCCCC00230722028203807F
:10A1D00043808380C380038143818381C38170472F
:10A1E000002302228260036043608381704700BFC6
:10A1F000038829B923F040031B041B0C038070471C
:10A200009BB243F040030380704700BF838B29B9A2
:10A2100023F480631B041B0C838370479BB243F4BD
:10A2200080638383704700BF038823F400631B04AB
:10A230001B0C038003889BB219430180704700BF49
:10A24000B1F5804F038805D023F480431B041B0C19
:10A25000038070479BB243F480430380704700BF84
:10A260004FF6FF639942038804D09BB243F4807396
:10A270000380704723F480731B041B0C038070471A
:10A28000838829B923F004031B041B0C83807047C7
:10A290009BB243F004038380704700BF838829B9D1
:10A2A00023F010031B041B0C838070479BB243F008
:10A2B00010038380704700BF838B23F47B6323F0FC
:10A2C0000F031B0402221B0C83830284838B0A88E6
:10A2D00030B44D888C8889899BB22B4343F400634A
:10A2E00022F40072234392B20B43002A9BB214BFA4
:10A2F00000224FF480721343838330BC704700BF49
:10A30000808980B2704700BF81817047038829B976
:10A3100023F400531B041B0C038070479BB243F4CF
:10A3200000530380704700BF03889BB243F48053FF
:10A3300003807047012914BF008B808A80B2704768
:10A34000008A80B2704700BF83889BB21AB923EAA3
:10A3500001018180704719438180704701230909F9
:10A3600003FA01F1838889B29BB21AB923EA010189
:10A370008180704719438180704700BF038919426B
:10A380000CBF002001207047C94389B2018170478A
:10A3900010B48488008901F00F03012280B202FA10
:10A3A00003F31840A4B205D009098A4014420CBF37
:10A3B000002001205DF8044B704700BF01F00F0141
:10A3C000012303FA01F1C94389B20181704700BF3B
:10A3D00008B5604B984235D0B0F1804F3CD05E4B11
:10A3E000984243D05D4B98424AD05D4B984251D041
:10A3F0005C4B984258D05C4B98425FD05B4B984284
:10A4000066D05B4B98426DD05A4B984276D05A4BEF
:10A4100098427FD0594B984200F08880584B984220
:10A4200000F08E80574B984200D008BD4FF48070EA
:10A430000121FFF74FFC4FF480700021BDE8084078
:10A44000FFF748BC01200146FFF750FC0120002126
:10A45000BDE80840FFF74ABC01200146FFF73AFC7F
:10A4600001200021BDE80840FFF734BC0220012193
:10A47000FFF730FC02200021BDE80840FFF72ABCAE
:10A4800004200121FFF726FC04200021BDE808403C
:10A49000FFF720BC08200121FFF71CFC0820002149
:10A4A000BDE80840FFF716BC10200121FFF712FCA1
:10A4B00010200021BDE80840FFF70CBC202001213E
:10A4C000FFF708FC20200021BDE80840FFF702BC90
:10A4D00002200121FFF70AFC02200021BDE808400C
:10A4E000FFF704BC4FF480300121FFF7FFFB4FF46E
:10A4F00080300021BDE80840FFF7F8BB4FF4003082
:10A500000121FFF7F3FB4FF400300021BDE80840C4
:10A51000FFF7ECBB4FF480200121FFF7E7FB4FF47E
:10A5200080200021BDE80840FFF7E0BB402001216A
:10A53000FFF7D0FB40200021BDE80840FFF7CABB71
:10A5400080200121FFF7C6FB80200021BDE80840E4
:10A55000FFF7C0BB000001400004004000080040BD
:10A56000000C0040001000400014004000040140B6
:10A5700000400140004401400048014000180040F4
:10A58000001C004000200040234A0388904270B421
:10A590009BB212D002F5806290420ED0B0F1804F93
:10A5A0000BD0A2F58032904207D002F58062904233
:10A5B00003D002F58062904203D14A8823F07003F1
:10A5C0001343164A90421ED002F5806290421AD080
:10A5D0000E894D680C8823F4407302F56C429BB2DF
:10A5E000334390420380C562048506D00C4B9842E9
:10A5F00003D00123838270BC70478B7A03860123CA
:10A60000838270BC704703800B884A68C2620385EE
:10A610000123838270BC704700000140001000409D
:10A620000004014000234FF0FF32426003800381A9
:10A6300043808372704700BF01858282704700BFEC
:10A64000038823F070031B041B0C1943018070471F
:10A6500041627047C1627047406A7047008D80B2A6
:10A66000704700BF038829B923F002031B041B0CA9
:10A67000038070479BB243F002030380704700BF22
:10A68000038829B923F004031B041B0C03807047C3
:10A690009BB243F004030380704700BF038829B9CD
:10A6A00023F080031B041B0C038070479BB243F014
:10A6B00080030380704700BF038823F008031B0456
:10A6C0001B0C038003889BB219430180704700BFB5
:10A6D000038823F440731B041B0C038003889BB284
:10A6E00019430180704700BF038829B923F0010393
:10A6F0001B041B0C038070479BB243F001030380D3
:10A70000704700BFF0B4048CB1F802C08F890E8886
:10A710001B4D24F001042404240C0484028C84883E
:10A72000038B22F0020223F0730312044CEA0707A2
:10A730001B04120CBFB21B0CA84247EA0202A4B2CF
:10A7400043EA06030AD005F58065A84206D0896869
:10A7500084800383F0BC416302847047B1F80EC06B
:10A760004F8A0D8A8E8822F0080242EA0C023D438D
:10A7700024F4407422F00402ADB232432C43E6E7E5
:10A7800000000140F0B4048CB1F80CC04F880E8872
:10A790001F4D24F010042404240C0484028C8488AB
:10A7A000038B22F02002120423F4E643120C1B0454
:10A7B00042EA0C121B0C42EA071243EA0623A842A3
:10A7C00092B2A4B29BB20AD005F58065A84206D029
:10A7D000896884800383F0BC816302847047CD89DB
:10A7E000B1F810C08F884E8A22F0800292B242EAFD
:10A7F000051224F440644FF6BF75154044EA8C04FA
:10A8000045EA071244EA860492B2A4B2E0E700BF28
:10A8100000000140F0B4048CB1F80CC04F880E88E1
:10A820001E4D24F480742404240C0484028C848837
:10A83000838B22F400721204120C23F0730342EA99
:10A840000C221B0442EA07221B0CA84292B2A4B2BB
:10A8500043EA06030AD005F58065A84206D0896858
:10A8600084808383F0BCC16302847047CD89B1F8D2
:10A8700010C08F884E8A22F4006292B242EA05220A
:10A8800024F440544FF6FF35154044EA0C1445EAD1
:10A89000072244EA061492B2A4B2E0E700000140A5
:10A8A000F0B4048CB1F80CC04F880E88164D24F417
:10A8B00080542404240C0484028C8488838B22F426
:10A8C0000052120423F4E643120C1B0442EA0C3239
:10A8D0001B0C42EA073243EA0623A84292B2A4B212
:10A8E0009BB20AD005F58065A84206D089688480AD
:10A8F0008383F0BC0164028470470D8A24F4804491
:10A9000044EA8514A4B2F1E700000140002303806B
:10A910004380838083608381C38103824382704745
:10A92000038C10B401249BB28C4023EA040421F070
:10A930000803048418307BB10439C1F34E0148F692
:10A94000FF730C5823400B5012020B585DF8044B58
:10A9500092B21A430A50704749084FF68F73445811
:10A960002340435043585DF8044B1A43425070470C
:10A970004163704781637047C163704701647047EA
:10A98000038B23F070031B041B0C194301837047D6
:10A99000038B23F4E0431B041B0C43EA01218BB21D
:10A9A00003837047838B23F070031B041B0C194334
:10A9B00081837047838B23F4E0431B041B0C43EA21
:10A9C00001218BB283837047038B23F008031B04A0
:10A9D0001B0C194301837047038B23F400631B0492
:10A9E0001B0C43EA01218BB203837047838B23F056
:10A9F00008031B041B0C194381837047838B23F4CA
:10AA000000631B041B0C43EA01218BB28383704754
:10AA1000038B23F004031B041B0C194301837047B1
:10AA2000038B23F480631B041B0C43EA01218BB2CC
:10AA300003837047838B23F004031B041B0C19430F
:10AA400081837047838B23F480631B041B0C43EAD0
:10AA500001218BB283837047038B23F080031B0497
:10AA60001B0C194301837047038BC3F30E0343EAA6
:10AA700001218BB203837047838B23F080031B0477
:10AA80001B0C194381837047838BC3F30E0343EA86
:10AA900001218BB283837047038C23F002031B04D4
:10AAA0001B0C194301847047038C23F008031B041B
:10AAB0001B0C194301847047038C23F020031B04F3
:10AAC0001B0C43EA01118BB203847047038C23F003
:10AAD00080031B041B0C43EA01118BB203847047F3
:10AAE000038C23F400731B041B0C43EA01218BB27B
:10AAF00003847047038C23F400631B041B0C43EA9C
:10AB000001218BB203847047038C23F400531B0490
:10AB10001B0C43EA01318BB203847047038C10B4E1
:10AB200001248C409BB223EA04030384038C5DF868
:10AB3000044B8A4013439BB203847047038C10B4C8
:10AB400004248C409BB223EA04030384038C5DF845
:10AB5000044B8A4013439BB2038470470B88F0B4C4
:10AB6000002B32D0042B58D0082B038C00F08380AC
:10AB70004E888F880D89CC8823F480510904090CF4
:10AB80000184828B038C22F4407223F4005312055B
:10AB90005B04120D5B0C42EA072243EA063342EAE9
:10ABA00005329BB243F4805392B282830384838B39
:10ABB00023F440631B041B0C8383838B9BB243EA07
:10ABC00004239BB28383F0BC7047028C8D880E896E
:10ABD0004C88C98822F001021204120C0284028BF4
:10ABE000038C92B222F0F30223F00A0342EA061227
:10ABF0001B0444F0010492B21B0C23432A4302833A
:10AC00000384038B23F00C031B041B0C0383038BB3
:10AC10009BB20B430383F0BC7047028C4E888C8838
:10AC20000F89C98822F010021204120C0284038BCF
:10AC3000058C23F440731B051B0DADB243EA0732AC
:10AC400025F0A00545EA061392B242EA04229BB21F
:10AC500043F0100392B202830384038B23F4406316
:10AC60001B041B0C0383038B9BB243EA01239BB29F
:10AC70000383F0BC704723F480731B041B0C4D88C6
:10AC80008C880E89CA880384818B038C89B29BB21D
:10AC900021F0F30123F4206341EA061143EA05237E
:10ACA00089B29BB243F48073214381830384838BF5
:10ACB00023F00C031B041B0C8383838B9BB2134375
:10ACC000838380E700230122828003804380C38046
:10ACD00003817047F0B44D888C880A88002D14BF1A
:10ACE00000260226012C14BF4FF480774FF4007722
:10ACF00014BF4FF0010C4FF0020C002A4ED0028C12
:10AD00000F89C98822F010021204120C0284038BEE
:10AD1000028C23F440731B051B0D92B243EA0733E8
:10AD200022F0A0029BB242EA051543EA0424ADB228
:10AD3000A4B245F0100504830584038B23F440631B
:10AD40001B041B0C0383038B9BB243EA01239BB2BE
:10AD50000383038C23F001031B041B0C0384028B6D
:10AD6000038C92B222F0F3029BB242EA071723F05F
:10AD70000A03BFB243F001031E4347EA0C0CA0F8DC
:10AD800018C00684038B23F00C031B041B0C0383E5
:10AD9000038B9BB219430183F0BC7047028CB1F85E
:10ADA00008C0C98822F001021204120C0284038B2D
:10ADB000028C9BB223F0F30322F00A0243EA0C1345
:10ADC000120445F001059BB2120C1C432A43048374
:10ADD0000284028B22F00C021204120C0283038BF9
:10ADE0009BB20B430383028C22F010021204120C5C
:10ADF0000284038B028C23F440731B051B0D92B25B
:10AE000043EA0C3322F0A0029BB242F010021F432F
:10AE100042EA061607830684038B23F440631B046F
:10AE20001B0C0383038B9BB243EA012189B201838C
:10AE3000F0BC7047406B7047806B7047C06B7047C9
:10AE4000006C7047038B23F00C031B041B0C038363
:10AE5000038B9BB219430183704700BF038B23F41C
:10AE600040631B041B0C0383038B9BB243EA012149
:10AE70008BB20383704700BF838B23F00C031B044A
:10AE80001B0C8383838B9BB219438183704700BF64
:10AE9000838B23F440631B041B0C8383838B9BB243
:10AEA00043EA01218BB28383704700BFB1F802C02F
:10AEB0000B888A89F0B48F88CE880D894C894CEA3A
:10AEC00003033B4333432B43234313439BB2A0F879
:10AED0004430F0BC704700BF002303804380838070
:10AEE000C380038143818381704700BFB0F8443041
:10AEF00021B9C3F30E03A0F8443070476FEA43430F
:10AF00006FEA53439BB2A0F844307047838829B955
:10AF100023F004031B041B0C838070479BB243F097
:10AF200004038380704700BF838829B923F001039D
:10AF30001B041B0C838070479BB243F0010383808A
:10AF4000704700BF83899BB21AB923EA010181814E
:10AF5000704719438181704781827047038A194283
:10AF60000CBF002001207047C94389B2018270479D
:10AF7000038A828911EA030092B203D011420CBF06
:10AF800000200120704700BFC94389B20182704789
:10AF90000A43A0F84820704783899BB21AB923EA74
:10AFA000010181817047194381817047838829B9E4
:10AFB00023F008031B041B0C838070479BB243F0F3
:10AFC00008038380704700BF038923F007031B0435
:10AFD0001B0C0381704700BF038923F070031B041F
:10AFE0001B0C1943018103899BB243F007030381C2
:10AFF000704700BF602930B4048C24D024F00104D1
:10B000002404240C0484058B048CADB225F0F305D4
:10B01000A4B245F0010524F00A0445EA031344F004
:10B0200001049BB2224303830284038923F070034B
:10B030001B041B0C0B43038103899BB243F00703E2
:10B04000038130BC704724F010042404240C0484D1
:10B05000048B058C24F440742405ADB2240D25F036
:10B06000A00544F4807445F0100544EA033345EA32
:10B0700002129BB292B203830284D6E710B4048911
:10B0800042EA0323E4B223439BB2194301810389BB
:10B090005DF8044B23F077031B041B0C43F077038C
:10B0A0000381704710B4048942EA0323E4B22343C6
:10B0B0009BB21943018103895DF8044B9BB243F4B1
:10B0C00080430381704700BF038923F070031B0492
:10B0D0001B0C194301817047838823F070031B0404
:10B0E0001B0C838083889BB219438180704700BF0B
:10B0F000038923F007031B041B0C038103899BB204
:10B1000019430181704700BF038923F080031B04AA
:10B110001B0C038103899BB219430181704700BF57
:10B1200010B40489E4B221430A4342EA03239CB2E7
:10B1300004815DF8044B704770B40589048B068C5C
:10B1400024F4407424F00304B6B226F0220625F05D
:10B150000705240432432D04240C2D0C44F4807480
:10B1600042EA0313294344F001049EB2018104839F
:10B17000068470BC704700BF838829B923F0800320
:10B180001B041B0C838070479BB243F080038380B9
:10B19000704700BFA0F85010704700BF2080030820
:10B1A00000000020C0000120C000012060580120E4
:10B1B000404A414BD2F88810404841F47001C2F82F
:10B1C00088101968002241F0010119609A6019681D
:10B1D00021F0847121F4803119605860196882B0BF
:10B1E00021F480211960DA60009201921A6842F419
:10B1F00080321A601A4603E0009BB3F5A06F09D0B5
:10B20000136803F400330193009B01330093019B07
:10B21000002BF1D0284B1B6813F4003318BF012317
:10B220000193019B012B14D0234A254B916821F4F3
:10B2300000019160C2F88430136843F080631360AA
:10B2400013681B01FCD51B4B4FF000629A6002B0E3
:10B250007047194B1B4A186C1B4940F0805018640A
:10B26000106840F4404010609A689A609A6842F40E
:10B2700000429A609A6842F4A0529A6059601A6833
:10B2800042F080721A6019460B680B4A9801FBD590
:10B290000E4B40F205611960936823F0030393603D
:10B2A000936843F002039360936803F00C03082B48
:10B2B000FAD1B9E700ED00E0003802401030002478
:10B2C000804000300070004008544007003C0240BD
:10B2D000154B9A6802F00C02042A23D0082A09D0E0
:10B2E000124A1149124B8968C1F30311595CCA40D3
:10B2F0001A617047586859685B6842024CBF0D4A32
:10B300000A4A01F03F01C3F38813B2FBF1F202FBDA
:10B3100003F2054B5B68C3F3014301335B00B2FBEF
:10B32000F3F2DEE7034ADCE7003802400024F400D1
:10B330001000002000127A002DE9F047784CDFF869
:10B34000F881DFF8F8A19CB0064600212046FCF702
:10B35000E5FF20460021FDF79FF840460021FDF75C
:10B360003DFBFCF77DFF6F480121FEF753FC4FF4D6
:10B3700080700121FEF77EFC00254FF4806C4FF4B5
:10B38000006E4FF00F094FF480724FF400334046C7
:10B390000F960DA901264FF40057CDF84CC0CDF8FB
:10B3A00050E016921793CDF838A015970D9510958B
:10B3B000129518951A951B95CDF844901996FDF79E
:10B3C000C3FA31464046FDF709FB4FF440324FF4D3
:10B3D000A06303A804921CAF069303950595FCF7A0
:10B3E00083FF204607A907958DF820608DF821601E
:10B3F00009950A950B958DF83090FCF73FFFEF23E8
:10B4000047F86C3D4FF0030A394647488DF80B501A
:10B410008DF808A0FDF774FF3F2339464348019398
:10B42000FDF76EFF39464248CDF804A0FDF768FFEE
:10B43000394640233F480193FDF762FF20462946E5
:10B4400032460623FCF7A2FF20463146022206239D
:10B45000FCF79CFF2046524602210623FCF796FF8C
:10B460002046514604220623FCF790FF0621204681
:10B470000B460522FCF78AFF0622204613460721C9
:10B48000FCF784FF20460A2107220623FCF77EFFF3
:10B4900020460B2108220623FCF778FF20460C21CA
:10B4A00009220623FCF772FF20460D210A220623FB
:10B4B000FCF76CFF20460E210B220623FCF766FFEB
:10B4C000204649460C220623FCF760FF2046052152
:10B4D0000D220623FCF75AFF204608210E220623E0
:10B4E000FCF754FF062320464A460921FCF74EFF8D
:10B4F0002A4640461021FDF7F5FA20463146FCF772
:10B50000D5FF20463146FCF7C7FF20463146FCF701
:10B5100005FF2046FCF786FF1CB0BDE8F08700BFA2
:10B5200000200140070040000000024000080240E7
:10B530000004024000140240106402404C2001400C
:10B540002DE9F04F594CDFF86C81DFF86C919DB01C
:10B55000064600212046FCF7E1FE20460021FCF7CC
:10B560009BFF40460021FDF739FA4FF4800001218E
:10B57000FEF750FB4FF480600121FEF77BFB20209B
:10B580000121FEF747FB00254FF4006C4FF4005EED
:10B5900001274FF480724FF4003340460F960DA9F7
:10B5A00007264FF0806A4FF4806BCDF850C0CDF87D
:10B5B00054E016921793CDF83890CDF834A010953A
:10B5C000129518951A951B951196CDF84CB01997B0
:10B5D000FDF7BAF939464046FDF700FA4FF440321C
:10B5E0004FF4A06303A80492069303950595FCF716
:10B5F0007BFE204607A907958DF820708DF82170F5
:10B6000009950A950B958DF83060FCF737FE1CA95B
:10B610004FF47E7341F86C3D4FF0030924488DF8D8
:10B620000B508DF80890FDF76BFE20463A463346E6
:10B630000421FCF7ABFE2046334609210222FCF729
:10B64000A5FE20464A4633460E21FCF79FFE2046C3
:10B6500033460F210422FCF799FE0521204633468C
:10B660000A46FCF793FE0621204633460A46FCF7BD
:10B670008DFE3346204631463246FCF787FE2A4689
:10B6800040461021FDF72EFA20463946FCF70EFF02
:10B6900020463946FCF700FF20463946FCF73EFEBF
:10B6A0002046FCF7BFFE1DB0BDE8F08F0022014030
:10B6B00000140240286402404C220140F0B4A0B1C2
:10B6C000B1F90070B1F90250B1F90460B1F9064066
:10B6D000043805EB074504EB064480B242F8045BEE
:10B6E000083143F8044B0028EAD1F0BC704700BF92
:10B6F00070B480B10439043A51F8045F52F8044F31
:10B700005D8004382D14261480B21D80DC809E805C
:10B7100008330028F0D170BC704700BF012070478B
:10B7200070B5354C4FF4961306460D46236004E081
:10B7300023685A1E2260002B5BD030484FF4003142
:10B74000FEF788F80028F3D12C480121FDF752FFBD
:10B750004FF48053236004E023685A1E2260002BBC
:10B7600047D026482649FEF761F80028F4D0234840
:10B7700034210022FDF75AFF4FF48053236004E088
:10B7800023685A1E2260002B33D01C481D49FEF747
:10B790004DF80028F4D0C5F3002141EA4601C9B2B2
:10B7A0001648FDF7DBFF4FF48053236003E0236866
:10B7B0005A1E2260EBB111481349FEF737F80028F2
:10B7C000F5D0E9B20D48FDF7C9FF4FF49613236099
:10B7D00003E023685A1E22605BB108480B49FEF75C
:10B7E00039F80028F5D005480121FDF711FF0020A8
:10B7F00070BD012070BD00BF240000200058004033
:10B800000100030082000700800007000400001010
:10B8100038B50F200021FFF783FF054D0024E0B26B
:10B8200035F8021F0134FFF77BFF0A2CF7D138BD32
:10B8300096510108F0B5164C85B001214FF48000F7
:10B84000FEF70CFA04AD2046FDF70EFE4CF2503325
:10B850004FF0000E4FF48062204645F8103D4BF645
:10B86000FF774FF4804333260121ADF804E0ADF8B3
:10B870000A20ADF80C30ADF80670ADF80860FDF7A1
:10B88000ABFE20466946FDF725FE05B0F0BD00BFC2
:10B890000058004030B5124C85B0054601214FF4E8
:10B8A0008040FEF7DBF92046FEF7B8FB00224FF49C
:10B8B0000073204669460324ADF80220ADF80C2041
:10B8C000ADF80030ADF806300295ADF80440FEF753
:10B8D00005FC69460348FEF7EFFC05B030BD00BF2C
:10B8E0000038004000340040F0B5294C294E83B0A8
:10B8F00006200121FEF78EF90025012302272046AC
:10B9000069464FF440628DF8063000928DF804705D
:10B910008DF805508DF80750FDF7F2FC20460A21FE
:10B920000422FDF78DFD042220460B21FDF788FD42
:10B93000204669464FF4704300938DF804708DF8EB
:10B9400005508DF806508DF80750FDF7D9FC4023BF
:10B95000694630460093FDF7D3FC20460C210522B2
:10B96000FDF76EFD20460D210522FDF769FD2046FD
:10B970000F210522FDF764FD20460E210522FDF76B
:10B980005FFD304606210522FDF75AFD03B0F0BDEC
:10B9900000040240000802402DE9F04184B08046D6
:10B9A000FFF7A2FF01214FF48000FEF757F904AE24
:10B9B0002748284DFDF758FD4CF250334BF6FF7EDB
:10B9C0003322002446F8103D4FF480474FF4806343
:10B9D0001F48ADF806E00121ADF80820ADF80A30A7
:10B9E000ADF80440ADF80C70FDF7F6FD6946184857
:10B9F000FDF770FD01213846FEF730F91648FEF7D5
:10BA00000DFB4FF40073032269461348ADF8042080
:10BA1000ADF80030ADF80630CDF80880ADF8024042
:10BA2000ADF80C40FEF75AFB69460C48FEF744FCA3
:10BA300021460F20FFF774FEE0B235F8021F0134F3
:10BA4000FFF76EFE0A2CF7D104B0BDE8F08100BF0D
:10BA50000058004096510108003800400034004072
:10BA600070B5012082B00146FEF7D4F84FF00050C7
:10BA70000121FEF7F3F800241022032369460F4842
:10BA800000928DF804308DF80740FDF739FC0C4B1F
:10BA90004FF430621946204604264025DC601E60C3
:10BAA0005D609A60FCF7CCFD20460121FCF7E6FDC5
:10BAB00020462146FCF728FE02B070BD000002407F
:10BAC00010020120014BD862704700BF00100040F7
:10BAD00010B5012184B00F4C1020FEF7BFF801A86B
:10BAE000FEF7A0FD00234FF4804201A920460292F8
:10BAF000ADF80430ADF80C30ADF80630FEF744FD7B
:10BB000020462021FFF7E8FA20460121FEF7ECFD50
:10BB100004B010BD00100040024A034B32F8202050
:10BB20001A837047AC51010800100240024A034BCF
:10BB300032F820205A837047AC51010800100240AF
:10BB4000014B6F221A83704700100240014B6F2295
:10BB50005A8370470010024005280AD0084A094B52
:10BB600002EB80001A6983691A4214BF0020012089
:10BB70007047054B186980F40040C0F3C03070472F
:10BB8000AC510108000C0240001802402DE9F04FB2
:10BB9000102089B00121FEF73DF8724DDFF8D091F9
:10BBA000DFF8D0B1704F714EDFF8CC810121042055
:10BBB000FEF730F803A801244FF0000AFDF700FC5F
:10BBC00003A92846702203928DF810408DF811A029
:10BBD0008DF812A08DF813A0FDF792FB6F22284676
:10BBE00003A90392FDF78CFB284603A98023039346
:10BBF000FDF786FB802303A948460393FDF780FBEE
:10BC000021464020FEF706F84FF4FC4203A95846AF
:10BC10000392FDF775FB21464020FDF7FBFF6C22E8
:10BC2000584603A903928DF810408DF811A08DF8A5
:10BC300012A08DF813A0FDF763FB21464A20FDF703
:10BC4000E9FF21460420FDF7E5FF4FF4807203A9C8
:10BC50003846039201928DF810A08DF811A08DF84E
:10BC60001340FDF74DFB03A9304608230393FDF76E
:10BC700047FB284603A94FF400730393FDF740FBED
:10BC8000384603A941F20F030393FDF739FB4FF444
:10BC90000043584603A903934FF4804BFDF730FB54
:10BCA000384603A9CDF80CB0FDF72AFB019A0392A0
:10BCB000284603A9FDF724FB0425304603A9039574
:10BCC000FDF71EFB384603A94FF400430393FDF72D
:10BCD00017FB4FF400430222484603A903938DF853
:10BCE0001320FDF70DFB484603A9CDF80CB0FDF776
:10BCF00007FB4022304603A90392FDF701FB802396
:10BD0000304603A90393FDF7FBFA21462846FDF7C9
:10BD1000A5FF1E2202A88DF808208DF809508DF885
:10BD20000A508DF80B40FCF73DFA05A8FEF77AFCA7
:10BD300005A940464FF4FA420692ADF814A0ADF8BA
:10BD40001CA0ADF816A0FEF71FFC40462146224677
:10BD5000FFF7F8F840462146FEF7C6FC09B0BDE8FB
:10BD6000F08F00BF00100240000C024000040240AF
:10BD700000080240001802400008004030B50121D0
:10BD800085B00420FDF76AFF012404231E22144D10
:10BD90008DF8002068468DF801308DF802308DF85E
:10BDA0000340FCF7FFF901A8FEF73CFC002301A9C2
:10BDB00028464FF4FA42ADF80430ADF80C30ADF837
:10BDC00006300292FEF7E0FB284621462246FFF7A6
:10BDD000B9F828462146FEF787FC05B030BD00BF04
:10BDE0000008004008B501212D48FFF7CDF82D4A85
:10BDF0002D4B1269198812F4004F4EF2010218BF40
:10BE00004FF4604242EA410292B202F03F013C2903
:10BE10001A8041D0234A598810694EF2010210F469
:10BE2000804F18BF4FF4604242EA410292B202F0E2
:10BE30003F013C295A802BD01C4A998810694EF248
:10BE4000010210F0400F18BF4FF4604242EA410275
:10BE500092B24FF6F8718A429A8015D0134AD98867
:10BE600010694EF2010210F0800F18BF4FF46042CB
:10BE700042EA410292B24FF6F8718A42DA8002D168
:10BE80000B4B01221A7008BD0A4A01211170E5E727
:10BE9000094A01211170CFE7084A01211170B9E761
:10BEA0000008004000080240C400012000040240D5
:10BEB0002202012023020120250201202402012068
:10BEC0002DE9F04F01208DB001250146FDF7D2FE8E
:10BED000294602200024FDF7C1FE4FF002080DF1B3
:10BEE0003009294604208DF80F508DF80C808DF80C
:10BEF0000D408DF80E40FDF78DFE4FF4407349F86C
:10BF0000283D514BDFF850B1019318464946FDF7E3
:10BF1000F7F928462946FDF77DFEDFF840A14B4E94
:10BF20004B4F4FF4A062494658460292FDF7E8F99C
:10BF300040462946FDF76EFE4946504630220292A1
:10BF4000FDF7DEF9019B424618460821FDF778FA15
:10BF5000019B424618460921FDF772FA58462A46C7
:10BF60000821FDF76DFA58462A460A21FDF768FABE
:10BF7000504642460421FDF763FA424650460521E9
:10BF8000FDF75EFA334B04A81C605C609C60DC60CB
:10BF90001C615C61FEF746FB4FF4805304A93046F8
:10BFA0000593ADF81040ADF81840ADF81240FEF71B
:10BFB000EBFA04A93846FEF7E7FA6023304607A9F2
:10BFC000ADF81C30ADF81E500994ADF82840FEF7CE
:10BFD00099FB30460821FEF7F7FC304607A9FEF72B
:10BFE000D1FB30460821FEF7F7FC304607A9FEF7E3
:10BFF00011FC30460821FEF7F9FC304607A9FEF790
:10C000004FFC30460821FEF7F9FC30462946FEF782
:10C010006BFB384607A9FEF775FB38460821FEF78B
:10C02000D3FC384607A9FEF7F5FB38460821FEF792
:10C03000DDFC38462946FEF759FF38462946FEF70B
:10C0400053FB0DB0BDE8F08F000802400004004033
:10C0500000000140400201200000024000040240B4
:10C06000874B1B78012BF0B440F21A81854B1B687B
:10C07000002B40F08B80844A9169002940F0C781F1
:10C08000824BD3ED007AFCEEE77A17EE903AB3F1EB
:10C09000007F40F20E837E4B116340F6FA704FF43E
:10C0A000FA6118609161D1697748002940F0B78141
:10C0B000764CD4ED017AFCEEE77A17EE904AB4F1B3
:10C0C000007F40F2ED824FF4FA6540F6FA74416366
:10C0D000C5615C60116A6C48002940F0A7816B4C17
:10C0E000D4ED027AFCEEE77A17EE906AB6F1007FA3
:10C0F00040F201834FF4FA6540F6FA7481630562F9
:10C100009C60516A6048002940F097815F4CD4EDF3
:10C11000037AFCEEE77A17EE904AB4F1007F40F222
:10C12000F3824FF4FA6540F6FA74C1634562DC604D
:10C13000916A5548002940F08781544CD4ED047A27
:10C14000FCEEE77A17EE906AB6F1007F40F2FD82CE
:10C150004FF4FA6540F6FA74016485621C61D26A94
:10C160004949002A40F077814848D0ED057AFCEE35
:10C17000E77A17EE900AB0F1007F00F2D682486CA1
:10C180000130B0F5FA6F48646AD33EE13F49414857
:10C19000D1ED007A90ED007A3B4A67EE277A9469F8
:10C1A000C1ED007A002C40F05981FCEEE77A17EEE1
:10C1B000903AB3F1007F00F29582136B0133B3F52F
:10C1C000FA6F1363324B28BF1C60D1ED017A90EDFA
:10C1D000017AD4692C4D67EE277AC1ED017A002CE3
:10C1E00000F03E82013CEC61D1ED027A90ED027AE2
:10C1F000146A254D67EE277AC1ED027A002C00F013
:10C200003F82013C2C62D1ED037A90ED037A546AAF
:10C210001D4D67EE277AC1ED037A002C00F01082E5
:10C22000013C6C62D1ED047A90ED047A946A164D6B
:10C2300067EE277AC1ED047A002C00F0F181013C11
:10C24000AC6290ED057AD1ED057AD26A0E4867EEC0
:10C25000277AC1ED057A002A00F0D281013AC26244
:10C260000D4A1968D163596811640C49986848638C
:10C27000D868C863196951635B699363F0BC704700
:10C28000B2490120BC490120D00001202802012030
:10C290004002012050010120000400400000014044
:10C2A000D049D14AD14B91ED007AD2ED007AD049F4
:10C2B000D04A1B6892ED005AD1ED005AF7EE006AA1
:10C2C00036EEC76A76EEE76A002B40F0CB80B4EE1C
:10C2D000E55AF1EE10FA56BF65EEA65A65EE865A9B
:10C2E000E5EE275AC348C44BD1ED014A48BFE5EEFD
:10C2F000075A92ED015AC2ED005AB4EEE45AFCEE30
:10C30000E55AF1EE10FA15EE904A56BF64EEA65AC1
:10C3100064EE865AE5EE275A4FEA94441C6048BF03
:10C32000E5EE075AD1ED024A92ED025AC0ED015AEC
:10C33000B4EEE45AFCEEE55AF1EE10FA15EE904A2E
:10C3400056BF64EEA65A64EE865AE5EE275AA9480F
:10C3500048BFE5EE075AA40C5C6092ED035AD1ED9C
:10C36000034AC0ED025AB4EEE45AFCEEE55AF1EE8F
:10C3700010FA15EE904A56BF64EEA65A64EE865A3D
:10C38000E5EE275A9B4848BFE5EE075AA40C9C608F
:10C3900092ED045AD1ED044AC0ED035AB4EEE45ACA
:10C3A000FCEEE55AF1EE10FA15EE904A56BF64EE37
:10C3B000A65A64EE865AE5EE275A8E4848BFE5EE47
:10C3C000075AA40CDC6092ED055AD1ED054AC0ED88
:10C3D000045AB4EEE45AF1EE10FA4ABF64EE866AEB
:10C3E00064EEA66AE5EE076A824A58BFE5EE276A60
:10C3F000FCEEE55AC2ED056A15EE900AFCEEE66A1F
:10C40000810C196116EE901A8A0C5A6128E70139DD
:10C410009161D169784B774800293FF449AE0139E1
:10C42000C161116A734800293FF459AE01390162B4
:10C43000516A704800293FF469AE01394162916A3E
:10C440006C4800293FF479AED26A013981626949AA
:10C45000002A3FF489AE013ACA6201E7013C9461C7
:10C46000654BB2E6F4EEC55AF1EE10FAD4BF65EEB4
:10C47000A65A65EE865A6148D2ED014A90ED004A0F
:10C480005C4C5D4BD4BFE5EE275AE5EE075A91EDC3
:10C49000015AC2ED005AF4EEC54AF1EE10FA54BF4B
:10C4A00025EE265A25EE065A65EE845A54BFA4EEB0
:10C4B000A75AA4EE875AFCEEE55AD2ED024A90ED57
:10C4C000014A84ED015A15EE906AD1ED025A494CA9
:10C4D000F4EEE54A25EE045AF1EE10FA54BF65EE8B
:10C4E000A65A65EE865ABCEEC55A58BFE4EEA75A66
:10C4F0004FEA16451D6048BFE4EE875A15EE106AF4
:10C50000D2ED034A91ED035A90ED024AC4ED025A6E
:10C51000F4EEC54AF1EE10FA54BF25EE265A25EE88
:10C52000065A65EE845A58BFA4EEA75A4FEA16453C
:10C53000304C90ED034A5D6048BFA4EE875AFCEE94
:10C54000E55AD2ED044A84ED035A15EE906AD1ED16
:10C55000045A284CF4EEE54A25EE045AF1EE10FA9E
:10C5600054BF65EEA65A65EE865ABCEEC55A58BF52
:10C57000E4EEA75A4FEA16459D6048BFE4EE875A9D
:10C5800015EE106AD1ED054A92ED055A90ED044A78
:10C59000184AC4ED045AB4EEE45AF1EE10FA56BF4C
:10C5A00064EEA66A64EE866AE5EE276A4FEA1645EF
:10C5B000DD6048BFE5EE076AD0ED057AC2ED056A99
:10C5C00065EE845A66EEA76AFCEEE55AFCEEE66A72
:10C5D00015EE904A16EE906A210C320C19615A61E0
:10C5E0003EE600BF404A01204C4A0120BC490120E0
:10C5F00028020120D000012040020120500101202A
:10C60000FCEEE77A17EE901AB1F1007F40F29580C8
:10C610004FF4FA6440F6FA714264C46259611FE64D
:10C62000FCEEE77A17EE906AB6F1007F4AD82E6CDE
:10C630000136B6F5FA6F2E64FFF403AE1C6100E616
:10C64000FCEEE77A17EE906AB6F1007F65D8EE6BE4
:10C650000136B6F5FA6FEE63FFF4E4ADDC60E1E5B8
:10C66000FCEEE77A17EE906AB6F1007F32D86E6B77
:10C670000136B6F5FA6F6E63FFF4B6AD5C60B3E5F4
:10C68000FCEEE77A17EE906AB6F1007F66D8AE6BE3
:10C690000136B6F5FA6FAE63FFF4B5AD9C60B2E556
:10C6A000446B0134B4F5FA6F4463FFF413AD596081
:10C6B00010E5136B0133B3F5FA6F13632B4B28BFEF
:10C6C0001960F0E44FF4FA6740F6FA762C64AF6232
:10C6D0001E61B6E54FF4FA6740F6FA766C63EF61D7
:10C6E0005E6081E5214B146340F6FA754FF4FA64FD
:10C6F0001D60946169E5846B0134B4F5FA6F84635D
:10C70000FFF4FFAC9960FCE4C46B0134B4F5FA6F3C
:10C71000C463FFF40DADD9600AE54FF4FA6740F643
:10C72000FA76EC636F62DE607CE54FF4FA6440F603
:10C73000FA704A64CC62586192E5416C0131B1F5FE
:10C74000FA6F4164FFF48CAD5FE6046C0134B4F51C
:10C75000FA6F0464FFF403AD196100E54FF4FA6762
:10C7600040F6FA76AC632F629E604CE540020120F1
:10C77000024A034B01211170187070471801012003
:10C7800048030120074B8022B0F1B04FCCBF1A8381
:10C790005A83054B8022B1F1B04FCCBF1A835A8324
:10C7A000704700BF00100240000802402DE9F04F22
:10C7B000A84CA94D2378ADF24C5D0B91002B40F0B5
:10C7C00023852B780F2B40F20B85A44FA44A0997A1
:10C7D00001233B7013700146A24AA34B4020FEF791
:10C7E0006DFF02F0E3F805F00DF9DDF824C09CF8C8
:10C7F0000080B8F1000F40F0EC8494F800E0DFF81E
:10C80000A8C2DFF8A892DFF8A8A2984FDFED987AC7
:10C81000984E00240CF6D42B2046295C964AA1F1B0
:10C820001003DBB2EE2B135C9CBF0F2129540A2BA3
:10C8300084BF0A231354914A135C8B4224D08F4B3C
:10C84000002219543B460432B2F55C7F43ED027A74
:10C8500043ED017AE3EC017AF5D1BEF1010F00F06E
:10C860003283BEF1000F12D1002940F05184844A76
:10C870008449854BA150A3510130062804F10404DA
:10C8800007F52567C9D10DE0B8F1000FD7D1013008
:10C89000062804F1040407F52567BED1BEF1010F97
:10C8A00000F01E8312A9794ADFED793A794BDFF85F
:10C8B00004829FED793A07920A910691002211B203
:10C8C000052900F32B8275496B4C515CA45C0491E3
:10C8D000059411469000724C2044D0ED007AF4EE9D
:10C8E000E37AF1EE10FA00F19982F4EEC37AF1EEF8
:10C8F00010FA40F369859FED5E7AF7EE007A049DA9
:10C90000059F5C4C5E4854F82140DFF8ACA150F81C
:10C9100021005AF821A005F1010EC7EB87165FFA36
:10C920008EFE032717FB0565BEF1140F28BF4FF0DD
:10C93000140EAD0017FB0E66B60005F1040E04EBF5
:10C940000E0C06F1040904EB090BDCED004ADBEDEB
:10C95000005A06F1080C04EB0C0B05F108079BEDDF
:10C96000006A04EB070BDBED006A04EB050B9BEDA3
:10C97000004A344494ED005A67EE244A67EE266A72
:10C9800027EE044A40F6E174814484448644074417
:10C990000644A2452844E7EEA54AE7EE866AD9EDAB
:10C9A000005A9CED001A96ED006A9EED002AD7ED24
:10C9B000002AD0ED001AA7EE854A00F27B82DFF84C
:10C9C000BCC027EE866A67EEA55A67EE817A0CEB4B
:10C9D0008A0AA7EE216AE7EE025AE7EE227A9AED7A
:10C9E000027AB7EE005A35EE475A26EE056A65EE32
:10C9F000855A27EE855A0498059C2A4F4FEA40092C
:10CA000006464FEA041A4E44C4EB0A04B600240159
:10CA10004FF4256000FB01F03519054406443D4400
:10CA20003444A7EE265A38190E4ED0ED006AA7EE10
:10CA3000046AE7EE245A95ED017A049D15F0010091
:10CA4000094D40F0F081DDF818C04FF0800E93469C
:10CA500036E000BF308000201C4A01201801012070
:10CA600048030120980201205802012054030120AC
:10CA700000000000D8020120444A012028000020C4
:10CA8000300301201CFF010848F40108A401012023
:10CA90006F12033B00100240EE7C7F3FF4490120FF
:10CAA000C04901204C030120D00D030830B7020813
:10CAB0003876020800080240244A0120B0EE677A66
:10CAC0002C58325807EE904AF8EEE74A65EEE67ABF
:10CAD000B2F1B04FE4EE867AD4BFA3F81AE0A3F81F
:10CAE00018E00430E7EE457AB4F1B04FD4BFA8F8AF
:10CAF0001AE0A8F818E077EEE64A4028F0EE476A18
:10CB0000ECEC014ADAD15A46059D049CC5EB0A00BB
:10CB10004C444FF42565A400000105FB01F16518A4
:10CB200004442144284438440F4480ED007AC7ED82
:10CB3000017A069D013240350C2A06957FF4BFAE7E
:10CB40000DF1300CCDF820C0CD4BCE4A93F80090BB
:10CB5000CD4CCDF8109092F800C0CC4DDFEDCC5A02
:10CB6000DFF848B3DDF828E0DDF8209004F1400854
:10CB7000002344F8043B45F8043BBCF1000F6DD0A2
:10CB8000C44FC54EC548059449467246B7EE006A83
:10CB900031E0D2ED607AD2ED006A67EE277A36EEA8
:10CBA000477ADC07E7EE267A30D415ED013AD0ED6E
:10CBB000006AB8EEC37AA7EEA67ABDEEC77A17EE82
:10CBC00010AA0AF31F0A45F804AC91ED007AF5EEBD
:10CBD000C07AF1EE10FAD4BF67EEC77A67EE877AB3
:10CBE0000133062BE6EC017A01F1040100F10400A7
:10CBF00002F1400220D0B7EC017AB5EE407AF1EEB6
:10CC000010FAC6D1DC07D2ED007ACED5059CD0ED66
:10CC1000006A54F8044C039403EE104AB8EEC37A49
:10CC2000059CA7EEA67ABDEEC77A17EE10AA0AF306
:10CC30001F0A44F804ACC8E7059C44450EF1040EF5
:10CC400096D10B9B9049914A4020FEF751FD099DDA
:10CC500000232B700DF24C5DBDE8F08F0498002886
:10CC600070D08C4F8C4E8D48059449467246634671
:10CC7000B7EE006A31E0D2ED607AD2ED006A67EE7D
:10CC8000277A36EE477ADC07E7EE267A30D415EDC0
:10CC9000013AD0ED006AB8EEC37AA7EEA67ABDEEEF
:10CCA000C77A17EE10AA0AF31F0A45F804AC91EDF3
:10CCB000007AF5EEC07AF1EE10FAD4BF67EEC77ACB
:10CCC00067EE877A0133062BE6EC017A01F1040165
:10CCD00000F1040002F14002AED0B7EC017AB5EEEB
:10CCE000407AF1EE10FAC6D1DC07D2ED007ACED54B
:10CCF000059CD0ED006A54F8044C029403EE104AEF
:10CD0000B8EEC37A059CA7EEA67ABDEEC77A17EEF9
:10CD100010AA0AF31F0A44F804ACC8E7911FC9B26D
:10CD2000079C88000444D4ED007AF5EE407AF1EED9
:10CD300010FA3FF4FEAE5A4D5A4C6D5C645C04959B
:10CD40000594C8E50346534F534E5448059449464D
:10CD50007246B7EE006A3BE0DC07D2ED007A90ED58
:10CD6000007A4AD5059C54F8044C019403EE104A0D
:10CD700027EE877AF8EEC36A059C77EE266AFDEE09
:10CD8000E66A16EE90AA0AF31F0A44F804ACB4EE61
:10CD9000E57AF1EE10FA04DD434C3BF823A0A4F849
:10CDA00018A091ED007AF5EEC07AF1EE10FACCBF42
:10CDB00067EE877A67EEC77A0133062BE6EC017AD5
:10CDC00001F1040100F1040002F140023FF434AF2C
:10CDD000B7EC017AB5EE407AF1EE10FABCD0D2EDA4
:10CDE000607AD2ED006A67EE277A36EE477ADC0782
:10CDF000E7EE267A90ED007AB4D415ED013A27EEED
:10CE0000877AF8EEC36A77EE266AFDEEE66A16EEDA
:10CE100090AA0AF31F0A45F804ACB8E7B7EE007A07
:10CE2000DFED237A6BE5DDF818E000208024B446BE
:10CE3000AB4601E0B0EE677A5CF800505BF800604A
:10CE400007EE905AF8EEE74A65EEE67AB5F1B04F94
:10CE5000E4EE867ACCBF1C835C830430E7EE457A2F
:10CE6000B6F1B04FCCBFA8F81840A8F81A4077EE3A
:10CE7000E64A4028F0EE476AEEEC014ADAD143E692
:10CE800036010120C8010120F00201202C410120BF
:10CE90000000A04EA4010120280201205001012021
:10CEA0007C4A0120844A012000180240947F030834
:10CEB000000000001FED025AB7EE007AF0EE455A6E
:10CEC000B0EE456A97E5002940F05481D84BA35154
:10CED0000130062804F1040407F525677FF49DACB2
:10CEE00012AB00270A9304933BB2D24C07940DF186
:10CEF000300C052B9FEDD01ADFEDD01ADFEDD03AC4
:10CF00009FEDD04A9FEDD02AD04ED14DCDF820C014
:10CF100000F3EA80CF48D04B10F807C017F8038021
:10CF2000BE46FBB2CD494FEA8E021144D1ED007AE4
:10CF3000F4EEC17AF1EE10FA00F1E9819FEDC87AC2
:10CF4000F4EEC77AF1EE10FA40F31E82DFEDDB6AF1
:10CF5000F7EE007AC348C44950F82E0051F82E105D
:10CF6000DFF850A3C14CDFEDC22A9FEDC23ADFEDDE
:10CF7000C25A9FEDC27A06EE100AB8EE466A152034
:10CF800066EE214A08F1010B10FB0C895FFA8BFB5E
:10CF9000BBF1140F28BF4FF0140B01EB8909FCEE15
:10CFA000E44A10FB0CB099ED005ADFF80C9314EE34
:10CFB00090BA01EB8001D1ED004A66EE856A0AEB7A
:10CFC0008B0AE7EEA46AA1184FEA0C109AEDC85A32
:10CFD0000690F7EE007AF0EE674AE5EE634A4FEA14
:10CFE0004804059432EEC66AB0EE645AD1ED004AA8
:10CFF00066EEA46AF0EE424AE5EE634A4444CCEBA6
:10D000000000F4EEC46AF1EE10FA4FF4256188BF17
:10D01000F0EE446AA400000101FB0EF1A6EE257AB1
:10D0200004EB000B0C44E6EE834A2044089C594470
:10D0300022444944484413F00103C2ED007A64EEEF
:10D04000874A91ED016A90ED007A8D498D4A0498E6
:10D0500040F0E88080248A46934601E0B0EE676A9B
:10D060005AF803205BF8031067EE267A03EE102AC5
:10D07000E6EE057AB2F1B04FD8BF7483F8EEC35A2A
:10D08000C8BF3483E5EEE47AB1F1B04F03F1040395
:10D09000D4BF6C832C83402BA7EEE67AE0EC017AB8
:10D0A000DCD1059A06984FF425614244CCEB00038D
:10D0B0001B0101FB0EFE9200D11872441A4401EBD1
:10D0C0000E034B449144C3ED017A89ED007AC3ED20
:10D0D000027A049A013740320C2F04923FF434ADA7
:10D0E0003BB2052B7FF716AFBB1F0799DBB201EBF5
:10D0F0008302D2ED007AF5EE407AF1EE10FA9E4608
:10D10000E7D06149614A11F8038012F803C009E7CA
:10D11000012900F00181022900F0088103297AD059
:10D12000042900F01F81052900F02681062900F05E
:10D130000F81072900F00581082900F02D810929B8
:10D1400000F05C810A2900F038810B2900F02E8163
:10D150000C2900F04C810D2900F042810E294C4A27
:10D1600000F038814B494C4BA15000222A54A35166
:10D17000FFF782BB012900F0D680022948D003299D
:10D1800000F0ED80042900F00481052900F0F18011
:10D19000062900F0D380072900F00581082900F056
:10D1A0003481092900F037810A2900F031810B29E7
:10D1B00000F03D810C2900F037810D2900F031810C
:10D1C0000E2900F02B810F297FF461AB334BA35163
:10D1D0007EE6334B93F800E084F800E0FFF70FBBE6
:10D1E0006B780F2B3FF6F1AAAB780F2B3FF6EDAA29
:10D1F000EB780F2B3FF6E9AA2B790F2B3FF6E5AA28
:10D200006B790F2B3FF6E1AA264F0997FFF7E3BA98
:10D21000254BA3515CE61E4A2449254BA150A3513E
:10D22000FFF72ABB00234FF0800BBA464AE000BF4D
:10D23000DC510108A40101206F12033B6EDB363F75
:10D24000CDCCCC3D2D8DA73F60E5D03D00100240F8
:10D2500000080240444A0120F4490120C04901204D
:10D26000EE7C7F3F244A0120D8020120DC490120C6
:10D2700000008045A69B443B0000803AB81E853FD5
:10D2800098020120580201207C4A0120844A012092
:10D29000300301201CFF010848F40108AC540120B0
:10D2A0004803012018010120846701081440020886
:10D2B0004035020854C000204C030120000000004B
:10D2C000B0EE676AD458CF5867EE267A03EE104A5C
:10D2D000E6EE057AB7F1B04FC8BFA6F818B0F8EE81
:10D2E000C35AD8BFA6F81AB0E5EEE47AB4F1B04F4D
:10D2F00003F10403CCBFA5F818B0A5F81AB0402B71
:10D30000A7EEE67AE0EC017ADAD15746C9E6F7EE05
:10D31000006A5FED167A1DE6464A4749474BA15021
:10D32000A351FFF7A9BA464BA351D1E5454B414A5A
:10D33000A35103F6D423A350FFF79EBA424BA35147
:10D34000C6E53C4A4149424BA150A351FFF794BA6C
:10D35000384B404944F806A0E150FFF78DBA3E4BE8
:10D36000A351B5E5334A3D493D4BA150A351FFF7C9
:10D3700083BA3C4BA351ABE53B4B2E4AA35103F67A
:10D38000D423A350FFF778BAF7EE006A76EEE76A87
:10D39000E0E5364BA3519BE5264A3549354BA15074
:10D3A000A351FFF769BA344BA35191E5214A3349A0
:10D3B000334BA150A351FFF75FBA1E4A3149324B9C
:10D3C000A150A351FFF758BAB7EE007A37EE677A4B
:10D3D000FFF795BA2D492E4BA150A351FFF74CBA38
:10D3E000144B44F806C044F803B0FFF745BA114A9D
:10D3F0002849294BA150A351FFF73EBA0D4B274AAC
:10D4000044F80690E250FFF737BA254BA3515FE589
:10D41000244BA3515CE5244BA35159E5234BA35165
:10D4200056E5234BA35153E5224BA35150E5224B24
:10D43000A3514DE530030120C4140208F00902088D
:10D44000B05C0108981F0208D4920108B496020843
:10D45000E08B02080C81020858720108BC550208D2
:10D46000E84A020800880108906002082C7D010843
:10D470005CAC020888A10208A89D010854ED0208CE
:10D4800080E20208ACD70208D8CC02084C2E030870
:10D4900078230308FC02030828F8020804C20208E3
:10D4A0007CA8010824BE010850B3010874E90108F2
:10D4B000A0DE0108CCD30108F8C8010810B5044665
:10D4C000FBF7B4FBF320FBF749FCB4F1006F23D06A
:10D4D0003B4B9C424AD03B4B9C4224D03A4B9C4213
:10D4E0004BD03A4B9C4225D0394B9C424CD0394BC7
:10D4F0009C4226D0384B9C424DD0384B9C4227D082
:10D50000374B9C424ED0374B9C4228D0364B9C42E6
:10D510004FD0FBF79BFB10BD00200221FBF79AFCCC
:10D52000284B9C42DAD110200221FBF793FC274BB9
:10D530009C42D9D120200221FBF78CFC254B9C4238
:10D54000D8D130200221FBF785FC244B9C42D7D157
:10D5500040200221FBF77EFC224B9C42D6D10221C7
:10D560005020FBF777FCFBF771FB10BD0820022170
:10D57000FBF770FC144B9C42B3D118200221FBF73F
:10D5800069FC134B9C42B2D128200221FBF762FCBC
:10D59000114B9C42B1D138200221FBF75BFC104BB0
:10D5A0009C42B0D148200221FBF754FC0E4B9C4218
:10D5B000AFD102215820FBF74DFCFBF747FB10BD14
:10D5C000004000080080000800C0000800000108BA
:10D5D0000000020800000408000006080000080817
:10D5E00000000A0800000C0800000E08B0F1006FEF
:10D5F00010B5044621D03A4B984247D0394B9C4253
:10D6000022D0394B9C4248D0384B9C4223D0384BD7
:10D610009C4249D0374B9C4224D0374B9C424AD045
:10D62000364B9C4225D0364B9C424BD0354B9C42CE
:10D6300026D0354B9C424CD010BD00200221FBF778
:10D6400009FC284B9C42DCD110200221FBF702FC94
:10D65000264B9C42DBD120200221FBF7FBFB254B14
:10D660009C42DAD130200221FBF7F4FB234B9C4291
:10D67000D9D140200221FBF7EDFB224B9C42D8D1AF
:10D6800050200221BDE81040FBF7E4BB0820022136
:10D69000FBF7E0FB144B9C42B6D118200221FBF7AC
:10D6A000D9FB134B9C42B5D128200221FBF7D2FBBA
:10D6B000114B9C42B4D138200221FBF7CBFB104B1D
:10D6C0009C42B3D148200221FBF7C4FB0E4B9C4285
:10D6D000B2D158200221BDE81040FBF7BBBB00BF10
:10D6E000004000080080000800C000080000010899
:10D6F00000000208000004080000060800000808F6
:10D7000000000A0800000C0800000E0808B5FBF72E
:10D710008DFAF320FBF722FB08BD00BF0346084645
:10D720001946FBF7C1BC00BF034608461946FBF784
:10D730007BBC00BF08B5FBF789FA08BD70B552B1D4
:10D740000C46461A15462046315DFBF7ADFC013DFF
:10D7500004F10104F7D1002070BD00BF10B43AB14C
:10D760000B460A44401A1C68C45401339342FAD150
:10D7700000205DF8044B7047006870470068C0B235
:10D78000704700BF2DE9F84F364C374D4FF400106D
:10D790000121FCF73FFA20460021FBF71FF9204644
:10D7A000FBF73AF8314B324A5A601946204640227C
:10D7B00000244FF6FE7B4FF4806A4FF400694FF46B
:10D7C00000584FF480774FF40036DA601C609C609C
:10D7D0005C61DC621C635C639C63C3F810B0C3F8DB
:10D7E00018A0C3F81C90C3F820805F629E62FBF70C
:10D7F000ABF801221F480221FCF7A6FD214628466E
:10D80000FBF7ECF82846FBF707F81B4B1B4AC3F85D
:10D8100010B04FF0C06E194628469C60DC605C6119
:10D82000C3F818A0C3F81C90C3F820805F629E6202
:10D83000DC621C635C639C63C3F800E05A60FBF726
:10D8400083F828469E210122FBF74CF90C4B0D482A
:10D850004FF4804201211A600A46BDE8F84FFCF7F8
:10D8600073BD00BF7060024058600240E843012071
:10D870000C38004000380040704301200C34004058
:10D8800000E100E000340040F8B5174B174F184E88
:10D89000184A194D19489A60194680243A601C614B
:10D8A0003560FBF751F8164B16489D6019461C6110
:10D8B000FBF74AF811480121FBF790F811480121C4
:10D8C000FBF78CF81048838B5A0509D50F48838BDA
:10D8D0005B0500D5F8BD0121BDE8F840FCF796BC1A
:10D8E0000121FCF793FCF1E7E843012024440120E7
:10D8F0006C410120704201207041012070600240A3
:10D90000704301205860024000380040003400405D
:10D9100008B54FF082511B48FBF7ACF84FF090511F
:10D920001848FBF7A7F84FF088511648FBF7A2F804
:10D9300014484FF0C051FBF79DF8A0B911484FF0C3
:10D94000A051FBF797F800B908BD0F4B0F4A1968B3
:10D9500010680122FEF72AFF0A484FF0A051BDE8E7
:10D960000840FBF7A5B8084B084A196810688031D1
:10D9700080300022FEF71AFF02484FF0C051FBF73B
:10D9800097F8DBE758600240244401206C410120F5
:10D99000054B064A03F5906052F8041F43F8041B38
:10D9A0008342F9D1704700BF64440120147A030810
:10D9B000C54B2DE9F00F1B78023BDBB2032B2DED9D
:10D9C000068BC24B40F2F1801978C14CC14ADFEDA1
:10D9D000C27A92ED017A92ED02AAD2ED006A01EBD1
:10D9E000C10104EBC10393ED000AD3ED010AD3EDAD
:10D9F000029A93ED031AD3ED041A93ED059A93ED71
:10DA0000062AD3ED072AD3ED088A93ED093AD3ED20
:10DA10000A3A93ED0B8A93ED0C4AD3ED0D4AB8EE1A
:10DA2000665AF8EE475AD2ED036AB8EE4A6A69EED2
:10DA3000A79A92ED04AA20EE270A60EEA70A21EE2B
:10DA4000271AB8EE667A29EE279AF8EE4A6A68EE47
:10DA5000A78A28EE278A61EEA71A22EE272A62EE0D
:10DA6000A72A23EE273A63EEA73A24EE274A64EE6C
:10DA7000A74A20EE050A60EE850A21EE251A29EE56
:10DA8000855A61EEA51A22EE062A69EE255A62EE43
:10DA9000862A23EE073A28EE866A63EE873A24EE5A
:10DAA000264A28EE077A64EEA64ABCEEC55ABCEEBA
:10DAB000C00AFCEEE00ABCEEC11A15EE104A10EEE8
:10DAC000106A10EE905A11EE101AFCEEE55ABCEEF8
:10DAD000C66ABCEEC77AFCEEE44AFCEEE11ABCEE84
